:100000006FC0000095C0000093C0000091C00000C8
:100010008FC000008DC000008BC0000089C00000B0
:1000200087C0000085C0000083C0000081C00000C0
:100030007FC000007DC000007BC0000079C00000D0
:100040000C94600C75C000000C94C4090C94F60963
:100050006FC000006DC000006BC0000069C00000F0
:100060000C94E40E65C00000084AD73B3BCE016EFD
:1000700084BCBFFDC12F3D6C74319ABD56833DDAFF
:100080003D00C77F11BED9E4BB4C3E916BAAAABE0E
:10009000000000803F000000000800020100000393
:1000A0000407000000000000000001020408102006
:1000B00040800102040810200102040810200404FA
:1000C0000404040404040202020202020303030300
:1000D000030300000000250028002B00240A050E61
:1000E00011241FBECFEFD8E0DEBFCDBF12E0A0E0ED
:1000F000B1E0E8E1F6E202C005900D92A63FB1073B
:10010000D9F724E0A6EFB2E001C01D92A638B207ED
:10011000E1F710E0C0EED0E004C02297FE010E949B
:100120009010CC3DD107C9F70E94560C0C940A13CD
:1001300067CFDC01ED91FC910190F081E02D0994F5
:10014000CF936EE170E086EC93E00E94F00D62E0E8
:1001500070E086EC93E0EDDF61E870E086EC93E020
:10016000E8DF86EC93E00E94030E46E050E06EE18B
:1001700070E086EC93E00E94E40D86EC93E00E9430
:100180003A0D0697B4F186EC93E00E94420DC82F19
:1001900086EC93E00E94420D20E030E03C2F822B61
:1001A000932B9093FD028093FC0286EC93E00E94D7
:1001B000420DC82F86EC93E00E94420D20E030E013
:1001C0003C2F822B932B9093F9028093F80286ECBC
:1001D00093E00E94420DC82F86EC93E00E94420DEE
:1001E00020E030E03C2F822B932B9093FB028093F6
:1001F000FA02CF9108952F923F924F925F926F92A1
:100200007F928F929F92AF92BF92CF92DF92EF92A6
:10021000FF920F931F93CF93DF93CDB7DEB769970C
:100220000FB6F894DEBF0FBECDBF988F8F8B8D7F3A
:10023000019709F0DEC160E171E080E293E00E9485
:10024000BF0A6EE170E086EC93E00E94F00D60E082
:1002500070E086EC93E06DDF61E770E086EC93E0A0
:1002600068DF86EC93E00E94030E6ADF6091FC0277
:100270007091FD020091FA021091FB022090F802A9
:100280003090F90291E0083C11050CF090E081E01B
:10029000683C71050CF080E0892B39F728EC2216B8
:1002A00031041CF3C0900C01D0900D01E0900E01C0
:1002B000F0900F01882777FD8095982F0E94C0113C
:1002C000A70196010E94A0124B015C0160930A03F2
:1002D00070930B0380930C0390930D03B801882750
:1002E00077FD8095982F0E94C011A70196010E946A
:1002F000A0122B013C0160930603709307038093C7
:10030000080390930903B101882777FD8095982F02
:100310000E94C011A70196010E94A0126B017C01EE
:100320006093020370930303809304039093050387
:10033000A501940160E070E081E994E40E94251138
:10034000609308017093090180930A0190930B0157
:10035000A301920160E070E081E994E40E9425111C
:100360006093040170930501809306019093070147
:10037000A701960160E070E087E894E40E942511EF
:100380006093000170930101809302019093030137
:100390006EE170E086EC93E00E94F00D60E070E0AA
:1003A00086EC93E0C6DE62E770E086EC93E0C1DEA7
:1003B00086EC93E00E94030EC3DE6091FC02709114
:1003C000FD020091FA021091FB022090F802309099
:1003D000F90291E009338FEF18070CF490E081E007
:1003E0006933EFEF7E070CF480E0892B29F7F9E3FE
:1003F0002F16FFEF3F0604F780900C0190900D013F
:10040000A0900E01B0900F01882777FD8095982F5E
:100410000E94C011A50194010E94A0126B017C01F1
:1004200060930A0370930B0380930C0390930D0366
:10043000B801882777FD8095982F0E94C011A501EB
:1004400094010E94A0122B013C016093060370935B
:1004500007038093080390930903B101882777FD70
:100460008095982F0E94C011A50194010E94A012AE
:100470004B015C01609302037093030380930403B8
:100480009093050320E030E0A901C701B6010E9466
:100490009512A701960118160CF0505860E070E014
:1004A00081E994E40E94251120910801309109010D
:1004B00040910A0150910B010E94951020E030E01C
:1004C00040E05FE30E94A01260930801709309016D
:1004D00080930A0190930B0120E030E0A901C30151
:1004E000B2010E949512A301920118160CF0505807
:1004F00060E070E081E994E40E94251120910401FC
:100500003091050140910601509107010E9495101C
:1005100020E030E040E05FE30E94A012609304011D
:1005200070930501809306019093070120E030E06D
:10053000A901C501B4010E949512A50194011816E4
:100540000CF0505860E070E087E894E40E942511B8
:10055000209100013091010140910201509103016D
:100560000E94951020E030E040E05FE30E94A0127E
:100570006093000170930101809302019093030145
:100580006AE371E080E293E0E0D740910801509186
:10059000090160910A0170910B0122E030E080E2D4
:1005A00093E00E94450C6BE471E080E293E0CDD7CC
:1005B000409104015091050160910601709107017D
:1005C00022E030E080E293E00E94450C6CE571E0AF
:1005D00080E293E0BAD7409100015091010160910F
:1005E00002017091030122E030E080E293E00E947A
:1005F000450C6EE170E086EC93E00E94F00D60E047
:1006000070E086EC93E095DD68E770E086EC93E0BF
:1006100090DD86EC93E00E94030E8F89988D0297FF
:10062000029708F095C26DE671E080E293E0A7D7EB
:1006300069E971E080E293E0A2D71AE081DD115010
:10064000E9F78091F6029091F702019709F053C003
:100650006CEF71E080E293E092D768EE73E080E0A7
:1006600090E00E94D90C64E172E080E293E087D7C9
:1006700068EE73E080E090E00E94D90C66E172E0E1
:1006800080E293E07CD768EE73E080E090E00E9427
:10069000D90C68E172E080E293E071D768EE73E014
:1006A00080E090E00E94D90C6AE172E080E293E081
:1006B00066D780E293E051D71AE06CE172E080E205
:1006C00093E043D71150C9F76CE172E080E293E008
:1006D00056D764E272E080E293E051D71AE06CE111
:1006E00072E080E293E031D71150C9F76CE172E01B
:1006F00080E293E044D70E94AA0C6B017C011B8A24
:100700001C8A2AE72D8B85E48E8B1F86188AEAE7E0
:10071000E98BF5E4FA8B212C312C2D878E871986F5
:100720001A86EB87F5ECFC871D821E822F8385ECF1
:10073000888719821A82EB83FC830E94AA0C6C19A9
:100740007D098E099F09613375478105910508F080
:1007500021C1F6DC80900C0190900D01A0900E015B
:10076000B0900F018091FC029091FD02BC0188279E
:1007700077FD8095982F0E94C011A50194010E94D9
:10078000A012209108013091090140910A01509175
:100790000B010E94A0122B013C0160930A0370938D
:1007A0000B0380930C0390930D038091FA029091B8
:1007B000FB02BC01882777FD8095982F0E94C0110D
:1007C000A50194010E94A01220910401309105011D
:1007D00040910601509107010E94A0126093060308
:1007E0007093070380930803909309038091F802A4
:1007F0009091F902BC01882777FD8095982F0E947F
:10080000C011A50194010E94A01220910001309115
:10081000010140910201509103010E94A0126093D6
:100820000203709303038093040390930503809164
:10083000F6029091F702019769F522E030E0B301EA
:10084000A20180E293E00E94440C6EE172E080E23B
:1008500093E07BD640910603509107036091080313
:100860007091090322E030E080E293E00E94440CA2
:100870006EE172E080E293E068D64091020350910D
:100880000303609104037091050322E030E080E2ED
:1008900093E0FBD700910A0310910B0320910C0306
:1008A000298F80910D038F8B9801498D582F698175
:1008B0007A818B819C810E949512181634F00983ED
:1008C0001A83E98DEB83FF89FC8380900603909067
:1008D0000703A0900803B09009039401A5016D815E
:1008E0007E818F8198850E949512181624F08D8242
:1008F0009E82AF82B88640900203509003036090BE
:100900000403709005039201A30169857A858B85A4
:100910009C850E949512181624F049865A866B868B
:100920007C869801498D5F89B1018D859E850E94E5
:10093000211187FF05C081012D85298F8E858F8B21
:100940009401A5016F85788989899A890E9421116E
:1009500087FF04C08F849888A988BA889201A30170
:100960006B897C898D899E890E94211187FF04C033
:100970004B885C886D887E884B8A5C8A6D8A7E8A0B
:100980008F86988AA98ABA8A1801E98DED87FF892E
:10099000FE87D3CE8091F6029091F702019711F570
:1009A00080E293E0DAD51AE06CE172E080E293E055
:1009B000CCD51150C9F76CE172E080E293E0DFD54D
:1009C00060E272E080E293E0DAD51AE06CE172E076
:1009D00080E293E0BAD51150C9F76CE172E080E291
:1009E00093E0CDD591014D855E8569817A818B81BA
:1009F0009C810E94941020E030E040E05FE30E9480
:100A0000A01229813A814B815C810E9494106093ED
:100A100016037093170380931803909319032F857F
:100A2000388949895A896D817E818F8198850E9494
:100A3000941020E030E040E05FE30E94A0122D819E
:100A40003E814F8158850E949410609312037093E9
:100A5000130380931403909315032B893C894D89CC
:100A60005E8969857A858B859C850E94941020E03B
:100A700030E040E05FE30E94A01229853A854B8573
:100A80005C850E94941060930E0370930F03809313
:100A900010039093110362E472E080E293E055D575
:100AA0004091160350911703609118037091190338
:100AB00022E030E080E293E0E7D66FE472E080E28B
:100AC00093E05DD563E572E080E293E03ED540912E
:100AD000120350911303609114037091150322E0E7
:100AE00030E080E293E0D0D66FE472E080E293E001
:100AF00046D560E672E080E293E027D540910E0390
:100B000050910F03609110037091110322E030E0C7
:100B100080E293E0B9D66FE472E080E293E06996F8
:100B20000FB6F894DEBF0FBECDBFDF91CF911F91FE
:100B30000F91FF90EF90DF90CF90BF90AF909F907C
:100B40008F907F906F905F904F903F902F9017C540
:100B500069960FB6F894DEBF0FBECDBFDF91CF917F
:100B60001F910F91FF90EF90DF90CF90BF90AF90CB
:100B70009F908F907F906F905F904F903F902F90BD
:100B80000895CF92DF92EF92FF92DADAC0900C01D3
:100B9000D0900D01E0900E01F0900F016091FC02E9
:100BA0007091FD02882777FD8095982F0E94C011D3
:100BB000A70196010E94A01220910801309109011D
:100BC00040910A0150910B010E94A012209116033E
:100BD0003091170340911803509119030E9495100A
:100BE00060930A0370930B0380930C0390930D039F
:100BF0006091FA027091FB02882777FD8095982F0B
:100C00000E94C011A70196010E94A0122091040128
:100C10003091050140910601509107010E94A012F8
:100C20002091120330911303409114035091150346
:100C30000E94951060930603709307038093080346
:100C4000909309036091F8027091F902882777FD6B
:100C50008095982F0E94C011A70196010E94A012B2
:100C60002091000130910101409102015091030156
:100C70000E94A01220910E0330910F0340911003A7
:100C8000509111030E949510609302037093030327
:100C90008093040390930503FF90EF90DF90CF9033
:100CA0000895CF92DF92EF92FF926BDFC090060320
:100CB000D0900703E0900803F090090320E030E0B3
:100CC000A901C701B6010E9495121816DCF4A7010C
:100CD000960160910A0370910B0380910C0390912F
:100CE0000D030E9425110E94F91023E333E345E62A
:100CF00052E40E94A0129B01AC0160E070E084EB22
:100D000092E423C020E030E0A901C701B6010E94AF
:100D1000211187FF25C0A701960160910A037091F8
:100D20000B0380910C0390910D030E9425110E94EA
:100D3000F91023E333E345E652E40E94A0129B013D
:100D4000AC0160E070E087E893E40E949410609347
:100D5000FE027093FF0280930003909301032DC065
:100D600020E030E0A90160910A0370910B038091AB
:100D70000C0390910D030E94211187FF16C020E003
:100D800030E0A901C701B6010E94211181110DC0F7
:100D900080E090E0A4E3B3E48093FE029093FF022E
:100DA000A0930003B093010308C01092FE021092BA
:100DB000FF021092000310920103FF90EF90DF906A
:100DC000CF9008951F93CF93DF93EC016EE170E015
:100DD00086EC93E005D761E070E086EC93E0A9D95A
:100DE000209771F488E491EEAAE3BFE380930C01AD
:100DF00090930D01A0930E01B0930F0110E075C008
:100E0000C130D10571F48FE195E8ABE6BFE3809383
:100E10000C0190930D01A0930E01B0930F0110E20D
:100E200064C0C230D10571F486EF98E2ACE9BFE34B
:100E300080930C0190930D01A0930E01B0930F01CC
:100E400010E453C0C330D10571F48CE59FE8A2ECE7
:100E5000BFE380930C0190930D01A0930E01B0931A
:100E60000F0110E642C0C430D10571F48EEA97E458
:100E7000A1E1B0E480930C0190930D01A0930E01C9
:100E8000B0930F0110E831C0C530D10571F48AE08C
:100E900097EDA3E2B0E480930C0190930D01A09331
:100EA0000E01B0930F0110EA20C0C630D10571F4D5
:100EB00085E89BEEA1E4B0E480930C0190930D01D2
:100EC000A0930E01B0930F0110EC0FC0279769F4A7
:100ED00083E393E3ABE8B0E480930C0190930D01BE
:100EE000A0930E01B0930F0110EE612F86EC93E0FA
:100EF00018D663E070E086EC93E01BD986EC93E0B3
:100F000082D66DE672E080E293E01FD340910C013F
:100F100050910D0160910E0170910F0122E030E0BF
:100F200080E293E0B1D461E872E080E293E0DF9187
:100F3000CF911F9124C326E040E855E260E070E0C5
:100F400080E293E0C1D186EC93E029D68AE097E570
:100F5000A4EFB2E48093160390931703A0931803B1
:100F6000B09319038BE794E1A6E6B3E480931203F0
:100F700090931303A0931403B09315038DEC9CEE90
:100F8000A2ECB3E480930E0390930F03A09310039D
:100F9000B093110389E29CE5AFE8BFE380930801B9
:100FA00090930901A0930A01B0930B0187ED93EA96
:100FB000A0E9BFE38093040190930501A09306018B
:100FC000B09307018AE097EDA3E8BFE380930001A7
:100FD00090930101A0930201B093030182E090E09D
:100FE000F1DE81E090E09093F7028093F60283E0D7
:100FF00090E001C9CF93DF93ADD460931A0370934F
:101000001B0380931C0390931D03BBDD69E872E012
:1010100080E293E09AD240910A0350910B036091D1
:101020000C0370910D0322E030E080E293E02DD4B8
:101030006EE872E080E293E088D24091060350911E
:101040000703609108037091090322E030E080E219
:1010500093E01BD463E972E080E293E076D24091A2
:10106000020350910303609104037091050322E091
:1010700030E080E293E009D414DE68E972E080E2B7
:1010800093E063D24091FE025091FF026091000311
:101090007091010322E030E080E293E0F5D369EA49
:1010A00072E080E293E06BD255D420911A03309124
:1010B0001B03EB01C21BD30BD0931F03C0931E0372
:1010C00061EB72E080E293E040D2BE01882777FDB9
:1010D0008095982F0E94C01120E030E0A9010E9465
:1010E0002511AB01BC0122E030E080E293E0CCD3DB
:1010F00066EC72E080E293E042D268EB7BE080E055
:1011000090E0DF91CF9155C4FC01818D228D90E05C
:10111000805C9F4F821B91098F7399270895FC0172
:10112000918D828D981731F0828DE80FF11D858D9C
:1011300090E008958FEF9FEF0895FC01918D828DCF
:10114000981761F0828DDF01A80FB11D5D968C911B
:10115000928D9F5F9F73928F90E008958FEF9FEF26
:1011600008958BE19AE0892B41F080E090E0892B93
:1011700021F061D181110C9400000895FC01848D4F
:10118000DF01A80FB11DA35ABF4F2C91848D90E0B1
:1011900001968F739927848FA689B7892C93A0898C
:1011A000B1898C9180648C93938D848D981306C043
:1011B0000288F389E02D80818F7D80830895CF930D
:1011C000DF93EC01888D8823C1F0EA89FB89808157
:1011D00085FD05C0A889B9898C9186FD0EC00FB622
:1011E00007FCF5CF808185FFF2CFA889B9898C9162
:1011F00085FFEDCFCE01C2DFE8CFDF91CF9108951B
:10120000CF92DF92FF920F931F93CF93DF931F92A2
:10121000CDB7DEB76C01DC015B969C915B975C9669
:101220008C915C97981307C05096ED91FC91519763
:10123000808185FD31C0F601038D10E00F5F1F4FE7
:101240000F731127F02EF601848DF81210C00FB61F
:1012500007FCF9CFD6015096ED91FC915197808112
:1012600085FFF1CFC601698389DF6981ECCF838D6A
:10127000E80FF11DE35AFF4F6083D6015B960C9394
:101280005B975296ED91FC915397808180628083A9
:1012900081E058968C930DC0D6015696ED91FC9145
:1012A000579760835096ED91FC91519780818064AF
:1012B000808381E090E00F90DF91CF911F910F919B
:1012C000FF90DF90CF900895BF92CF92DF92EF9280
:1012D000FF92CF93DF93EC016A017B01B22EE88984
:1012E000F98982E08083411581EE58076105710517
:1012F00099F060E079E08DE390E0A7019601ECD6EB
:10130000215031094109510956954795379527953F
:10131000211580E1380790F0E889F989108260E8AA
:1013200074E88EE190E0A7019601D6D621503109EC
:10133000410951095695479537952795EC85FD85C7
:101340003083EE85FF852083188EEC89FD89B0827D
:10135000EA89FB89808180618083EA89FB898081B9
:1013600088608083EA89FB89808180688083EA893C
:10137000FB8980818F7D8083DF91CF91FF90EF90FB
:10138000DF90CF90BF9008951F920F920FB60F92EB
:1013900011242F938F939F93EF93FF93E09130034A
:1013A000F09131038081E0913603F091370382FDA3
:1013B00012C09081809139038F5F8F7320913A031F
:1013C000821751F0E0913903F0E0E05EFC4F958F19
:1013D0008093390301C08081FF91EF919F918F919C
:1013E0002F910F900FBE0F901F9018951F920F9284
:1013F0000FB60F9211242F933F934F935F936F93E8
:101400007F938F939F93AF93BF93EF93FF9380E26C
:1014100093E0B4DEFF91EF91BF91AF919F918F91D7
:101420007F916F915F914F913F912F910F900FBEE0
:101430000F901F90189580E293E066DE21E0892BE3
:1014400009F420E0822F08951092230310922203C2
:1014500088EE93E0A0E0B0E080932403909325030E
:10146000A0932603B09327038CEC92E09093210382
:101470008093200385EC90E090932D0380932C03C0
:1014800084EC90E090932F0380932E0380EC90E007
:10149000909331038093300381EC90E09093330379
:1014A0008093320382EC90E0909335038093340371
:1014B00086EC90E0909337038093360310923903C3
:1014C00010923A0310923B0310923C030895CF927E
:1014D000DF92EF92FF920F931F93CF93DF936C01F4
:1014E0007A01EB01E60EF71E00E010E0CE15DF05F5
:1014F00061F06991D601ED91FC910190F081E02DB0
:10150000C6010995080F191FF1CFC801DF91CF91CE
:101510001F910F91FF90EF90DF90CF90089561158C
:10152000710581F0DB010D900020E9F7AD0141501C
:101530005109461B570BDC01ED91FC910280F381B0
:10154000E02D099480E090E00895E9CFDC01ED9171
:10155000FC910190F081E02D09940F931F93CF939C
:10156000DF93EC016DE0F2DF8C016AE0CE01EEDF8B
:10157000800F911FDF91CF911F910F9108950F93CD
:101580001F93CF93DF93EC01CADF8C01CE01E5DF1F
:10159000800F911FDF91CF911F910F9108958F922E
:1015A0009F92AF92BF92CF92DF92EF92FF920F93F2
:1015B0001F93CF93DF93CDB7DEB7A1970FB6F89403
:1015C000DEBF0FBECDBF7C01C42EE52FCB01D22ED6
:1015D00019A221E02D1510F02AE0D22E8E010F5D08
:1015E0001F4F8D2C912CA12CB12C6C2D7E2FA50181
:1015F000940172D58C2DD29E8019112401501109AD
:101600008A3014F4805D01C0895CF8018083211563
:1016100031054105510521F0C22EE32FCA01E5CF66
:10162000B801C7017CDFA1960FB6F894DEBF0FBEEC
:10163000CDBFDF91CF911F910F91FF90EF90DF9081
:10164000CF90BF90AF909F908F900895CF92DF92F0
:10165000EF92FF920F931F93CF93DF93EC016A01F8
:101660007B012115310579F4E881F9810190F08140
:10167000E02D642FDF91CF911F910F91FF90EF909C
:10168000DF90CF9009942A303105D9F477FF18C044
:101690006DE25CDF8C0144275527BA014C195D09C6
:1016A0006E097F092AE0CE017ADF800F911FDF915A
:1016B000CF911F910F91FF90EF90DF90CF90089501
:1016C0002AE0B701A601CE01DF91CF911F910F91C2
:1016D000FF90EF90DF90CF9062CF4F925F926F922A
:1016E0007F928F929F92AF92BF92CF92DF92EF92B2
:1016F000FF920F931F93CF93DF93EC016A017B015D
:10170000B22E9A01AB01C701B60180D7882319F028
:1017100068ED72E024C026013701E89477F82FEFD6
:101720003FEF4FE75FE7C301B20170D781110CC0F3
:101730002FEF3FEF4FE75FE7C301B20182D51816E5
:101740001CF46CED72E00BC02FEF3FEF4FE75FE44E
:10175000C701B601EAD61816A4F460EE72E0CE0115
:10176000DF91CF911F910F91FF90EF90DF90CF907D
:10177000BF90AF909F908F907F906F905F904F90B1
:10178000CECE2FEF3FEF4FE75FECC701B60159D543
:1017900087FDE3CF20E030E0A901C701B60151D5B4
:1017A00087FF09C06DE2CE01D1DE8C01F7FAF0941B
:1017B000F7F8F09402C000E010E0A12C60E070E0C7
:1017C00080E09FE3AB1439F020E030E040E251E4E8
:1017D0003CD5A394F7CF9B01AC01C701B601A5D4BA
:1017E0006B017C019FD52B013C01C8D59B01AC014D
:1017F000C701B60199D46B017C012AE0B301A201B3
:10180000CE01CDDE080F191FBB2031F064EE72E06F
:10181000CE0185DE080F191F7B2C772019F120E0FF
:1018200030E040E251E4C701B6018AD66B017C0189
:1018300074D54B01AA2497FCA094BA2C2AE030E07E
:10184000B501A401CE0102DF080F191FC501B401C3
:1018500097D59B01AC01C701B60166D46B017C0131
:101860007A94DBCFC801DF91CF911F910F91FF9048
:10187000EF90DF90CF90BF90AF909F908F907F9030
:101880006F905F904F90089528CF0F931F93CF9341
:10189000DF93EC0122DF8C01CE015FDE800F911F10
:1018A000DF91CF911F910F9108950895A7D0FDDF8B
:1018B00042DBC1EBD8E09EDB2097E9F352DCFBCFA3
:1018C0001F920F920FB60F9211242F933F938F9375
:1018D0009F93AF93BF938091BE039091BF03A0915C
:1018E000C003B091C1033091BD0323E0230F2D3716
:1018F00020F40196A11DB11D05C026E8230F029614
:10190000A11DB11D2093BD038093BE039093BF031F
:10191000A093C003B093C1038091C2039091C3030D
:10192000A091C403B091C5030196A11DB11D809380
:10193000C2039093C303A093C403B093C503BF91A4
:10194000AF919F918F913F912F910F900FBE0F906C
:101950001F9018952FB7F8946091BE037091BF0344
:101960008091C0039091C1032FBF08953FB7F894B1
:101970008091C2039091C303A091C403B091C503A9
:1019800026B5A89B05C02F3F19F00196A11DB11DDA
:101990003FBF6627782F892F9A2F620F711D811DF7
:1019A000911D42E0660F771F881F991F4A95D1F756
:1019B0000895CF92DF92EF92FF92CF93DF936B0166
:1019C0007C01D4DFEB01C114D104E104F10479F00E
:1019D00050D0CCDF6C1B7D0B683E7340A0F381E0E0
:1019E000C81AD108E108F108C851DC4FECCFDF91EB
:1019F000CF91FF90EF90DF90CF900895789484B5C9
:101A0000826084BD84B5816084BD85B5826085BDFA
:101A100085B5816085BDEEE6F0E0808181608083E0
:101A2000E1E8F0E0108280818260808380818160C3
:101A30008083E0E8F0E0808181608083E1EBF0E08A
:101A4000808184608083E0EBF0E08081816080832E
:101A5000EAE7F0E080818460808380818260808317
:101A60008081816080838081806880831092C10042
:101A7000089508958091F60390E02091F703821B6A
:101A8000910908952091F7038091F603281750F4E7
:101A9000E22FF0E0E850FC4F808190E02F5F209330
:101AA000F70308958FEF9FEF0895E091F70380917A
:101AB000F603E81730F4F0E0E850FC4F808190E046
:101AC00008958FEF9FEF08950895CF92DF92EF92E0
:101AD000FF920F931F93CF93DF937C01CB018A0179
:101AE0002091D203222389F0EB016B01C40ED51E95
:101AF000CC15DD0561F06991D701ED91FC91019064
:101B0000F081E02DC7010995F3CF642F34D1C801CE
:101B1000DF91CF911F910F91FF90EF90DF90CF90C9
:101B20000895CF93DF931F92CDB7DEB769832091DD
:101B3000D2032223D1F02091D303203240F021E0C0
:101B400030E0FC013383228380E090E014C0809178
:101B5000D403E82FF0E0EB52FC4F998190838F5F24
:101B60008093D4038093D30304C061E0CE01019637
:101B700002D181E090E00F90DF91CF910895FC01B8
:101B80001382128248EE53E060E070E04483558394
:101B9000668377838AEE92E0918380830895109222
:101BA000F7031092F6031092D4031092D30330C0BF
:101BB000862F413208F040E268EF73E045D0109282
:101BC000F7038093F603089521E0F2CF81E080933C
:101BD000D2036093F5031092D4031092D3030895B7
:101BE000F5CF0F93062F21E04091D30365ED73E00D
:101BF0008091F5036DD01092D4031092D30310920C
:101C0000D2030F91089561E0ECCF86EC93E0B7CF5B
:101C10001092850481E0809383041092820461E035
:101C200082E125D261E083E122D2E9EBF0E080811C
:101C30008E7F808380818D7F808388E48093B8004D
:101C400085E48093BC000895413208F03FC0909134
:101C500085049111FCCF91E0909385042093830437
:101C60002FEF2093180410925D04240F20935C043E
:101C70009093840490918404880F892B809384042A
:101C800080918204813041F4109282048091840416
:101C90008093BB0085EC01C085EE8093BC008091F1
:101CA00085048130E1F380915D04841710F4409144
:101CB0005D042EE534E0FB01D9018A2F821B8417D5
:101CC00018F48D918193F9CF842F089580E00895C1
:101CD0000F93413208F046C0909185049111FCCFDA
:101CE00092E090938504009383049FEF90931804EF
:101CF00010925D0440935C04FB016EE574E0DB012F
:101D00009A2F961B941718F491919D93F9CF1092E6
:101D1000840490918404880F892B8093840480919B
:101D20008204813041F41092820480918404809373
:101D3000BB0085EC01C085EE8093BC00222321F01E
:101D4000809185048230E1F3809118048F3F61F027
:101D500080911804803251F080911804803341F44E
:101D600083E007C081E005C080E003C082E001C0DD
:101D700084E00F910895613298F420918504243015
:101D800089F460933A04FC018CE394E0DC012A2F8F
:101D9000281B261718F421912D93F9CF80E0089580
:101DA00081E0089582E0089585ED8093BC008091E4
:101DB000BC0084FDFCCF10928504089585EC8093CF
:101DC000BC001092850408951F920F920FB60F92D7
:101DD00011242F933F934F935F936F937F938F9330
:101DE0009F93AF93BF93EF93FF938091B900887F48
:101DF000803609F49CC068F5883209F45BC090F421
:101E0000803109F454C038F4882309F4F3C08830D1
:101E100009F44DC0F2C0883109F44CC0803209F495
:101E20005DC0EBC0803409F468C048F4803309F425
:101E300055C0883309F0E1C080931804A7C08035ED
:101E400009F44FC0883509F45DC0883409F0D5C065
:101E5000D3C0883909F4C4C0A8F4883709F467C02E
:101E600038F4883609F463C0803709F460C0C5C00F
:101E7000883809F4B5C0803909F45FC0803809F0AA
:101E8000BCC05BC0803B09F483C038F4803A09F4DD
:101E900066C0883A09F47CC0B0C0803C09F4A4C094
:101EA000883C09F4A1C0883B09F487C0A6C0809192
:101EB000840410C090915D0480915C04981770F5C3
:101EC000E0915D0481E08E0F80935D04F0E0E25AC2
:101ED000FB4F80818093BB0085EC83C08093180406
:101EE0008BC0E0915D0481E08E0F80935D04809152
:101EF000BB00F0E0E25AFB4F808390915D0480913B
:101F00005C046BC0E0915D0481E08E0F80935D0402
:101F10008091BB00F0E0E25AFB4F80838091830404
:101F200081116AC081E08093820484EA5EC083E00C
:101F30008093850410921904CFCF809119048032C8
:101F400008F04EC0E091190481E08E0F80931904CF
:101F50008091BB00F0E0E65EFB4F8083BDCF8091B7
:101F60001904803230F4E0911904F0E0E65EFB4F92
:101F700010821ADF6091190470E0E0917E04F09104
:101F80007F048AE194E009951092190417DF35C0A7
:101F900084E08093850410923B0410923A04E0910F
:101FA0008004F0918104099580913A04811105C063
:101FB00081E080933A0410923C04E0913B0481E07C
:101FC0008E0F80933B04F0E0E45CFB4F80818093B4
:101FD000BB0090913B0480913A04981708F47CCFA1
:101FE00085E88093BC0009C085EC8093BC0010920A
:101FF000850403C010921804D7DEFF91EF91BF91C2
:10200000AF919F918F917F916F915F914F913F9190
:102010002F910F900FBE0F901F901895833081F075
:1020200028F4813099F08230A1F008958730A9F02A
:102030008830B9F08430D1F4809180008F7D03C066
:10204000809180008F7780938000089584B58F778A
:1020500002C084B58F7D84BD08958091B0008F77D4
:1020600003C08091B0008F7D8093B00008950F93DE
:102070001F93CF93DF931F92CDB7DEB7282F30E0A9
:10208000F901EA56FF4F8491F901E655FF4F14918B
:10209000F901E254FF4F04910023C1F0882319F0A5
:1020A0006983BCDF6981E02FF0E0EE0FFF1FEE5285
:1020B000FF4FA591B4919FB7F8948C91611103C023
:1020C0001095812301C0812B8C939FBF0F90DF91CE
:1020D000CF911F910F910895A1E21A2EAA1BBB1B4D
:1020E000FD010DC0AA1FBB1FEE1FFF1FA217B307E4
:1020F000E407F50720F0A21BB30BE40BF50B661FFA
:10210000771F881F991F1A9469F7609570958095BD
:1021100090959B01AC01BD01CF010895EE0FFF1F0B
:102120000590F491E02D09945058BB27AA270ED0B2
:10213000C2C1B3D130F0B8D120F031F49F3F11F4D7
:102140001EF483C10EF4E095E7FB79C1E92FC4D1F9
:1021500080F3BA17620773078407950718F071F4C4
:102160009EF5DCC10EF4E0950B2EBA2FA02D0B01CD
:10217000B90190010C01CA01A0011124FF27591BCC
:1021800099F0593F50F4503E68F11A16F040A22FD2
:10219000232F342F4427585FF3CF46953795279543
:1021A000A795F0405395C9F77EF41F16BA0B620B42
:1021B000730B840BBAF09150A1F0FF0FBB1F661F89
:1021C000771F881FC2F70EC0BA0F621F731F841FCC
:1021D00048F4879577956795B795F7959E3F08F0F2
:1021E000B3CF9395880F08F09927EE0F97958795B1
:1021F0000895DF93DD27B92FBF7740E85FE3161618
:10220000170648075B0710F4D92F93D19F938F933C
:102210007F936F93F8D1E8E6F0E01AD14CD12F917B
:102220003F914F915F9198D1DD2349F09058A2EAF8
:102230002AED3FE049EC5FE3D0785D2787DFDF914F
:102240003AC1D9D008F481E008950CD034C12CD122
:1022500040F023D130F021F45F3F19F0F0C051116C
:102260005EC1F3C039D198F39923C9F35523B1F373
:10227000951B550BBB27AA2762177307840738F0F5
:102280009F5F5F4F220F331F441FAA1FA9F333D054
:102290000E2E3AF0E0E830D091505040E695001C08
:1022A000CAF729D0FE2F27D0660F771F881FBB1FC4
:1022B000261737074807AB07B0E809F0BB0B802D9E
:1022C000BF01FF2793585F4F2AF09E3F510568F0EA
:1022D000B6C025C15F3FECF3983EDCF38695779559
:1022E0006795B795F7959F5FC9F7880F911D9695EC
:1022F000879597F90895E1E0660F771F881FBB1F48
:10230000621773078407BA0720F0621B730B840BF4
:10231000BA0BEE1F88F7E095089504D06894B111C8
:10232000FEC00895E1D088F09F5790F0B92F99270B
:10233000B751A0F0D1F0660F771F881F991F1AF0D0
:10234000BA95C9F712C0B13081F0E8D0B1E0089574
:10235000E5C0672F782F8827B85F39F0B93FCCF3F5
:10236000869577956795B395D9F73EF490958095C6
:10237000709561957F4F8F4F9F4F0895E89409C0E6
:1023800097FB3EF490958095709561957F4F8F4FA8
:102390009F4F9923A9F0F92F96E9BB279395F695BE
:1023A000879577956795B795F111F8CFFAF4BB0F3C
:1023B00011F460FF1BC06F5F7F4F8F4F9F4F16C0A0
:1023C000882311F096E911C0772321F09EE8872F2A
:1023D000762F05C0662371F096E8862F70E060E0E6
:1023E0002AF09A95660F771F881FDAF7880F96955F
:1023F000879597F90895990F0008550FAA0BE0E803
:10240000FEEF16161706E807F907C0F012161306B6
:10241000E407F50798F0621B730B840B950B39F4F6
:102420000A2661F0232B242B252B21F408950A265C
:1024300009F4A140A6958FEF811D811D089597F99C
:102440009F6780E870E060E008959FEF80EC08955A
:10245000DF93CF931F930F93FF92EF92DF927B0155
:102460008C01689405C0DA2EEF0176D0FE01E89465
:10247000A5912591359145915591AEF3EF0166DE19
:10248000FE019701A801DA9479F7DF90EF90FF90B1
:102490000F911F91CF91DF91089500240A94161691
:1024A000170618060906089500240A941216130642
:1024B000140605060895092E0394000C11F48823D0
:1024C00052F0BB0F40F4BF2B11F460FF04C06F5FEC
:1024D0007F4F8F4F9F4F089557FD9058440F551FC2
:1024E00059F05F3F71F04795880F97FB991F61F096
:1024F0009F3F79F087950895121613061406551F0D
:10250000F2CF4695F1DF08C0161617061806991F78
:10251000F1CF86957105610508940895E894BB276D
:1025200066277727CB0197F9089565DF08F48FEFC9
:1025300008959B01AC0160E070E080E89FE385CEE8
:102540000BD0B9CFAADF28F0AFDF18F0952309F040
:1025500076CF7BCF1124E3CFBFDFA0F3959FD1F3DC
:10256000950F50E0551F629FF001729FBB27F00D41
:10257000B11D639FAA27F00DB11DAA1F649F662796
:10258000B00DA11D661F829F2227B00DA11D621FE5
:10259000739FB00DA11D621F839FA00D611D221F9F
:1025A000749F3327A00D611D231F849F600D211D83
:1025B000822F762F6A2F11249F5750408AF0E1F026
:1025C00088234AF0EE0FFF1FBB1F661F771F881F6F
:1025D00091505040A9F79E3F510570F030CF9FCFEA
:1025E0005F3FECF3983EDCF3869577956795B7955A
:1025F000F795E7959F5FC1F7FE2B880F911D969584
:10260000879597F908959B01AC019ACFF4DE880B6A
:08261000990B0895F894FFCF27
:102618000000803F0000803F0000803F0000803FB6
:1026280043616C6962726174696E672074686520C1
:102638004D61676E65746F6D65746572202E2E2E00
:102648002E2E2E2E204761696E00785F6761696EB5
:102658005F6F6666736574203D2000795F67616906
:102668006E5F6F6666736574203D20007A5F6761F0
:10267800696E5F6F6666736574203D200043616C08
:102688006962726174696E6720746865204D61675C
:102698006E65746F6D65746572202E2E2E2E2E2E2B
:1026A8002E204F666673657400506C6561736520F3
:1026B800726F7461746520746865206D61676E65FA
:1026C800746F6D657465722032206F7220332074C8
:1026D800696D657320696E20636F6D706C657465D4
:1026E8002063697263756C65732077697468206903
:1026F8006E206F6E65206D696E757465202E2E2EA6
:102708002E2E2E2E2E2E2E2E2E2E2000537461723B
:1027180074696E672044656275672064617461201E
:10272800696E200033003200310030002A000900B1
:10273800456E64204465627567202D2D20284F66FC
:10274800667365742043616C6962726174696F6E47
:1027580029004F6666736574207820203D2000208C
:102768006D47004F6666736574207920203D200010
:102778004F6666736574207A20203D2000476169A2
:102788006E207570646174656420746F20203D202C
:1027980000206D472F6269740078203D2000792061
:1027A8003D20007A203D200048656164696E6720FD
:1027B800616E676C65203D20002044656772656521
:1027C800004C6F6164206F6E2070726F6365737365
:1027D8006F72203D20002500000000000009670AF4
:1027E80084089D088F08DF086E616E00696E6600B8
:1027F8006F7666002E0000000000910D650D3A0D01
:06280800420D550D640DA8
:00000001FF
