:1000000063C0000088C0000086C0000084C00000FB
:1000100082C0000080C000007EC000007CC00000E4
:100020007AC0000078C0000076C00000A0C50000C3
:1000300072C0000070C000006EC000006CC0000004
:10004000A2C1000068C0000076C40000A6C4000081
:1000500062C0000060C000005EC000005CC0000024
:100060005AC0000058C00000000000080002010053
:100070000003040700000000000000000102040863
:100080001020408001020408102001020408102002
:10009000040404040404040402020202020203032E
:1000A00003030303000000002300260029000000D2
:1000B0000000250028002B0000000000240027007D
:1000C0002A002001FB04D50811241FBECFEFD8E081
:1000D000DEBFCDBF11E0A0E0B1E0E2E2F4E102C09A
:1000E00005900D92A632B107D9F722E0A6E2B1E061
:1000F00001C01D92AF30B207E1F710E0C8ECD0E0CC
:1001000004C02297FE010E94F209C23CD107C9F740
:1001100023D50C940F0A74CF26E040E052EC61E046
:1001200070E08AE391E0A7D360910F017091100114
:1001300088E291E06ED661E080910B0126D261E009
:100140008091090122D261E0809107011ED260E016
:10015000809105011AD260E0809107014FD261E0E1
:10016000809109014BD260E080910B0147D28091D0
:10017000050179D221E0892B09F420E020932F0199
:100180000895E0913A01F0913B010190F081E02D5A
:10019000682F8AE391E009948F929F92AF92BF9269
:1001A000CF92DF92EF92FF920F931F93CF93DF9343
:1001B000EC014B018536910524F0BC0164567109B0
:1001C00004C064E670E0681B790B882777FD809592
:1001D000982F1F921F921F922FEF2F93A12CB12CBB
:1001E000650114E6E12EF12C00E010E020E030E0A3
:1001F000A9016CD4C401C2D70F900F900F900F903B
:10020000C536D10514F061E006C0C436D10511F43D
:1002100063E001C062E0C401DF91CF911F910F91B3
:10022000FF90EF90DF90CF90BF90AF909F908F9016
:1002300046C7BC0188E291E024C666E271E0ACCF1B
:10024000E7D770932E0160932D0188E291E049D5A4
:1002500041E060910D0186E291E0DDC61F93CF93EE
:10026000DF938AE391E040D2182F61E070E080E0F4
:1002700090E002D18AE391E037D2D12F20E0C22F63
:100280009E01280F311DC901DF91CF911F91089563
:100290000F931F9380910501E6D121E0892B09F48A
:1002A00020E02093300180912F01281751F0211177
:1002B00006C08091040191E0892780930401209376
:1002C0002F0180910401882309F44CC08AE391E056
:1002D000F2D11816190674F560E0809107018ED1ED
:1002E00060E0809109018AD161E080910B0186D1A3
:1002F000B5DF90932C0180932B01009731F480910E
:100300000B0190910C013DDF0FC09C012150310980
:10031000243B310518F4C9018CDF06C0855B9109C7
:10032000893C910508F489DF73D770932E0160939F
:100330002D0126C06DD700912D0110912E0122278D
:1003400017FD2095322F601B710B820B930B6230CF
:10035000710581059105A0F060E0809107014ED103
:1003600061E005C061E08091070148D160E08091C3
:10037000090144D160E080910B011F910F913EC1B2
:100380001F910F9108951F920F920FB60F92112493
:100390002F933F938F939F93AF93BF93809132019D
:1003A00090913301A0913401B09135013091310128
:1003B00023E0230F2D3720F40196A11DB11D05C0A8
:1003C00026E8230F0296A11DB11D209331018093D1
:1003D000320190933301A0933401B09335018091A1
:1003E000360190913701A0913801B0913901019601
:1003F000A11DB11D8093360190933701A093380160
:10040000B0933901BF91AF919F918F913F912F91FF
:100410000F900FBE0F901F9018952FB7F894609112
:1004200032017091330180913401909135012FBFD9
:1004300008953FB7F8948091360190913701A091CB
:100440003801B091390126B5A89B05C02F3F19F09E
:100450000196A11DB11D3FBF6627782F892F9A2FC6
:10046000620F711D811D911D42E0660F771F881F6D
:10047000991F4A95D1F70895CF92DF92EF92FF929C
:10048000CF93DF936B017C01D4DFEB01C114D10466
:10049000E104F10479F06AD3CCDF6C1B7D0B683E7C
:1004A0007340A0F381E0C81AD108E108F108C851EF
:1004B000DC4FECCFDF91CF91FF90EF90DF90CF90AA
:1004C0000895789484B5826084BD84B5816084BDCC
:1004D00085B5826085BD85B5816085BDEEE6F0E0BD
:1004E000808181608083E1E8F0E010828081826019
:1004F0008083808181608083E0E8F0E0808181609A
:100500008083E1EBF0E0808184608083E0EBF0E0C9
:10051000808181608083EAE7F0E08081846080836D
:100520008081826080838081816080838081806817
:1005300080831092C1000895833081F028F48130C7
:1005400099F08230A1F008958730A9F08830B9F091
:100550008430D1F4809180008F7D03C08091800031
:100560008F7780938000089584B58F7702C084B51B
:100570008F7D84BD08958091B0008F7703C08091F6
:10058000B0008F7D8093B0000895CF93DF9390E00B
:10059000FC01E458FF4F2491FC01E057FF4F849188
:1005A000882349F190E0880F991FFC01E854FF4F20
:1005B000A591B49182559F4FFC01C591D4919FB7ED
:1005C000611108C0F8948C91209582238C938881C6
:1005D00082230AC0623051F4F8948C91322F309506
:1005E00083238C938881822B888304C0F8948C9118
:1005F000822B8C939FBFDF91CF9108950F931F9310
:10060000CF93DF931F92CDB7DEB7282F30E0F901EB
:10061000E859FF4F8491F901E458FF4F1491F90113
:10062000E057FF4F04910023C1F0882319F069833C
:1006300083DF6981E02FF0E0EE0FFF1FE255FF4FEF
:10064000A591B4919FB7F8948C91611103C0109556
:10065000812301C0812B8C939FBF0F90DF91CF919D
:100660001F910F910895CF93DF93282F30E0F90168
:10067000E859FF4F8491F901E458FF4FD491F901F3
:10068000E057FF4FC491CC2389F0811155DFEC2F47
:10069000F0E0EE0FFF1FEC55FF4FA591B4912C91A8
:1006A0002D2381E090E021F480E002C080E090E022
:1006B000DF91CF910895FC01818D228D90E0805CC7
:1006C0009F4F821B91098F7399270895FC01918D8B
:1006D000828D981731F0828DE80FF11D858D90E0A5
:1006E00008958FEF9FEF0895FC01918D828D9817EB
:1006F00061F0828DDF01A80FB11D5D968C91928D06
:100700009F5F9F73928F90E008958FEF9FEF089502
:1007100082EF94E0892B41F080E090E0892B21F07A
:1007200061D181110C9400000895FC01848DDF01DA
:10073000A80FB11DA35ABF4F2C91848D90E0019654
:100740008F739927848FA689B7892C93A089B18943
:100750008C9180648C93938D848D981306C002884D
:10076000F389E02D80818F7D80830895CF93DF937F
:10077000EC01888D8823C1F0EA89FB89808185FDA1
:1007800005C0A889B9898C9186FD0EC00FB607FCFB
:10079000F5CF808185FFF2CFA889B9898C9185FF3B
:1007A000EDCFCE01C2DFE8CFDF91CF910895CF9298
:1007B000DF92FF920F931F93CF93DF931F92CDB7DA
:1007C000DEB76C01DC015B969C915B975C968C912B
:1007D0005C97981307C05096ED91FC9151978081DA
:1007E00085FD31C0F601038D10E00F5F1F4F0F73C1
:1007F0001127F02EF601848DF81210C00FB607FCF9
:10080000F9CFD6015096ED91FC915197808185FFEB
:10081000F1CFC601698389DF6981ECCF838DE80F51
:10082000F11DE35AFF4F6083D6015B960C935B97F3
:100830005296ED91FC91539780818062808381E094
:1008400058968C930DC0D6015696ED91FC91579712
:1008500060835096ED91FC915197808180648083F4
:1008600081E090E00F90DF91CF911F910F91FF9069
:10087000DF90CF900895BF92CF92DF92EF92FF92D8
:10088000CF93DF93EC016A017B01B22EE889F989ED
:1008900082E08083411581EE58076105710599F06A
:1008A00060E079E08DE390E0A70196015BD52150EF
:1008B00031094109510956954795379527952115D5
:1008C00080E1380790F0E889F989108260E874E8DF
:1008D0008EE190E0A701960145D5215031094109EB
:1008E00051095695479537952795EC85FD853083B9
:1008F000EE85FF852083188EEC89FD89B082EA8918
:10090000FB89808180618083EA89FB89808188609E
:100910008083EA89FB89808180688083EA89FB89FA
:1009200080818F7D8083DF91CF91FF90EF90DF906A
:10093000CF90BF9008951F920F920FB60F9211247F
:100940002F938F939F93EF93FF93E0914A01F09140
:100950004B018081E0915001F091510182FD12C064
:100960009081809153018F5F8F7320915401821782
:1009700051F0E0915301F0E0E65CFE4F958F8093DB
:10098000530101C08081FF91EF919F918F912F9131
:100990000F900FBE0F901F9018951F920F920FB6D9
:1009A0000F9211242F933F934F935F936F937F93F5
:1009B0008F939F93AF93BF93EF93FF938AE391E05D
:1009C000B4DEFF91EF91BF91AF919F918F917F9195
:1009D0006F915F914F913F912F910F900FBE0F90AC
:1009E0001F9018958AE391E066DE21E0892B09F4D7
:1009F00020E0822F089510923D0110923C0188EE74
:100A000093E0A0E0B0E080933E0190933F01A0937B
:100A10004001B093410189E191E090933B018093C3
:100A20003A0185EC90E0909347018093460184EC75
:100A300090E0909349018093480180EC90E090937E
:100A40004B0180934A0181EC90E090934D0180939B
:100A50004C0182EC90E090934F0180934E0186EC24
:100A600090E09093510180935001109253011092A5
:100A7000540110925501109256010895CF92DF92C1
:100A8000EF92FF920F931F93CF93DF936C017A0144
:100A9000EB01E60EF71E00E010E0CE15DF0561F079
:100AA0006991D601ED91FC910190F081E02DC60194
:100AB0000995080F191FF1CFC801DF91CF911F9140
:100AC0000F91FF90EF90DF90CF9008954F925F923B
:100AD0006F927F92AF92BF92CF92DF92EF92FF928E
:100AE0000F931F93CF93DF93CDB7DEB729013A0160
:100AF000621B730B840B950B29893A894B895C899E
:100B00002A193B094C095D09298B3A8B4B8B5C8B6D
:100B10009B01AC0169897A898B899C8908D4E41886
:100B2000F50806091709A80197013ED42A0D3B1DB7
:100B30004C1D5D1DCA01B901DF91CF911F910F912D
:100B4000FF90EF90DF90CF90BF90AF907F906F902D
:100B50005F904F9008950895B4DCFDDFDDDAC8E8BA
:100B6000D3E096DB2097E9F3D3DDFBCF08951F9206
:100B70000F920FB60F9211242F933F934F935F93D1
:100B80006F937F938F939F93AF93BF93EF93FF9355
:100B90008091D80187FF05C01092850010928400D3
:100BA0001AC02091D801332727FD30958091D701B5
:100BB00090E0281739077CF48091D801992787FDA8
:100BC0009095FC01EE0FFF1FE80FF91FE752FE4F53
:100BD000808186FD15C08091D8018F5F8093D801F8
:100BE0002091D801332727FD30958091D70190E0DF
:100BF00028173907B4F48091D8018C3054F111C012
:100C00008091D801992787FD9095FC01EE0FFF1F79
:100C1000E80FF91FE752FE4F808160E08F73EEDC32
:100C2000DACF8091840090918500049680349C49AD
:100C300018F480E49CE905C08091840090918500BF
:100C4000049690938900809388008FEF8093D80159
:100C500037C020918400309185008091D801992778
:100C600087FD9095FC01EE0FFF1FE80FF91FE7527B
:100C7000FE4F81819281820F931F90938900809310
:100C800088008091D801992787FD9095FC01EE0F8F
:100C9000FF1FE80FF91FE752FE4F808186FF10C04B
:100CA0008091D801992787FD9095FC01EE0FFF1FD9
:100CB000E80FF91FE752FE4F808161E08F739EDCE1
:100CC000FF91EF91BF91AF919F918F917F916F9124
:100CD0005F914F913F912F910F900FBE0F901F90FA
:100CE00018952091D7012C30A0F431E0320F3093C9
:100CF000D701FC012083822F90E0FC01EE0FFF1F43
:100D0000E80FF91FE752FE4F88EB9BE09283818347
:100D100008952FEFFC0120830895DF92EF92FF9258
:100D20000F931F93CF93DF93EC01D62E7A018901A5
:100D300088818C3008F064C061E08D2D26DC8881CC
:100D4000A82FB0E0FD01EE0FFF1FEA0FFB1FE752D7
:100D5000FE4F2D2D2F739081907C922B908360E21B
:100D600072E06E197F0977FF02C06D5F7F4F759546
:100D7000679575956795698340E659E0401B510B6F
:100D800057FF02C04D5F5F4F559547955595479565
:100D90004A836CE0DBD29CE0899FB001112420E003
:100DA00030E0A901460F571FFA01EE0FFF1FE40FB5
:100DB000F51FE752FE4F908196FD16C02F5F3F4F03
:100DC0002C30310571F781110FC01092800082E044
:100DD000809381001092850010928400B19A8091D6
:100DE0006F00826080936F00888190E0FC01EE0FBD
:100DF000FF1FE80FF91FE752FE4F80818064808358
:100E00008881DF91CF911F910F91FF90EF90DF903C
:100E1000089520E639E040E252E07FCFFC01808176
:100E20008C3070F5918128E830E0291B310997FD5D
:100E30003395220F331F220F331F621773077CF085
:100E4000928128E532E0291B310997FD3395220F65
:100E5000331F220F331F621773070CF49B012250BC
:100E60003109220F331F4FB7F89490E0FC01EE0FC9
:100E7000FF1FE80FF91FE752FE4F328321834FBF58
:100E800008954F925F926F927F92AF92BF92CF92EE
:100E9000DF92EF92FF920F931F93CF93DF93EC01BA
:100EA000603282E078070CF03FC077FD06C0653BFA
:100EB00071052CF064EB70E002C060E070E08981A5
:100EC00028E830E0281B310987FD3395220F331FB6
:100ED000220F331F5901CC24B7FCC094DC2C882787
:100EE00077FD8095982F2A8148E552E0421B5109F1
:100EF00027FD5395440F551F440F551F2A016624A3
:100F000057FC6094762C7F926F925F924F9214EB15
:100F1000E12EF12C00E010E020E030E0A901D6DD68
:100F20000F900F900F900F90CE01DF91CF911F91F6
:100F30000F91FF90EF90DF90CF90BF90AF907F9098
:100F40006F905F904F906ACF84B5836884BD17BC63
:100F500061E086E01ACB84B5836284BD18BC61E091
:100F600085E013CBCF93DF9360E08CE047DB60E05C
:100F700088E044DBC7E0D0E060E084E03FDB8091C4
:100F8000FE0190E00C2E02C0959587950A94E2F739
:100F900080FF02C061E001C060E088E02FDB61E01B
:100FA00084E02CDB219740F761E08CE0DF91CF916A
:100FB00025CBCF93DF93EC0161E08CE0E6DA61E0D2
:100FC00087E0E3DA61E088E0E0DA61E084E0DDDA3E
:100FD0001092FE01CE01C6DF60E087E0DF91CF9185
:100FE0000DCBE0EBF0E09081936890838770809365
:100FF000B1001092B30061E08BE0C7CAE0EBF0E013
:1010000090819362908387708093B1001092B400B6
:1010100061E083E0BACA1F93CF93DF931F92CDB7ED
:10102000DEB7FC01142F608341838DEF91E069836B
:10103000C0DF6981623019F188F4613009F03AC08B
:101040008091FE01837F8093FE018DEF91E08ADF26
:10105000812F0F90DF91CF911F91C3CF6330E9F0C3
:10106000643041F58091FE018E7B8093FE018DEF0F
:1010700091E078DF0F90DF91CF911F916CCF80913D
:10108000FE018D7E8093FE018DEF91E06BDF812F5D
:101090000F90DF91CF911F91B1CF8091FE018F759D
:1010A0008093FE018DEF91E05DDF0F90DF91CF9196
:1010B0001F914ACF0F90DF91CF911F910895FC01AE
:1010C0008081823091F018F4813031F008958330BE
:1010D00031F0843039F0089573E0E2E008C077E041
:1010E000E5E005C076E0E0E002C074E0E1E06230F7
:1010F000D1F0643069F1613009F03FC041E050E067
:101100009A01072E01C0220F0A94EAF720950E2EAD
:1011100001C0440F0A94EAF78091FE01842B282332
:101120002093FE0127C021E030E0A9010E2E01C06E
:10113000440F0A94EAF740958091FE014823072E58
:1011400001C0220F0A94EAF7422B4093FE0112C01D
:1011500081E090E0AC0101C0440FEA95EAF701C0DC
:10116000880F7A95EAF7842B80959091FE01982359
:101170009093FE018DEF91E0F5CE0895FC01808102
:10118000823061F018F4813031F00895833049F0F5
:10119000843049F008956093B30008956093B400DB
:1011A000089567BD089568BD08951092FD010895E2
:1011B0000F931F9360930B0270930C0280930D02A8
:1011C00090930E02009111011091120120911301D0
:1011D00030911401060F171F281F391F00930302B7
:1011E00010930402209305023093060282E090E0FF
:1011F000909302028093010210D9609307027093CA
:1012000008028093090290930A021F910F9108959A
:10121000CF92DF92EF92FF920F931F93FED8C09070
:101220000702D0900802E0900902F0900A026C19BF
:101230007D098E099F0900910B0210910C022091EB
:101240000D0230910E02683E734081059105D8F081
:101250000F5F1F4F2F4F3F4F00930B0210930C0255
:1012600020930D0230930E0248EEC40E43E0D41ECC
:10127000E11CF11CC0920702D0920802E092090220
:10128000F0920A02CBCF8091030290910402A091C8
:101290000502B0910602081719072A073B07C0F19B
:1012A000E091FF01F0910002309791F109956115ED
:1012B00071058105910511F07BDF2AC08091110134
:1012C00090911201A0911301B091140140910B0271
:1012D00050910C0260910D0270910E02840F951FC7
:1012E000A61FB71F8093030290930402A0930502E8
:1012F000B093060281E090E0209101023091020259
:10130000232B11F480E090E090930202809301027D
:1013100060910B0270910C0280910D0290910E026F
:101320001F910F91FF90EF90DF90CF900895DB0118
:101330008F939F936AD0BF91AF91A29F800D911D13
:10134000A39F900DB29F900D11240895991B79E0F1
:1013500004C0991F961708F0961B881F7A95C9F745
:1013600080950895A1E21A2EAA1BBB1BFD010DC09A
:10137000AA1FBB1FEE1FFF1FA217B307E407F50745
:1013800020F0A21BB30BE40BF50B661F771F881F21
:10139000991F1A9469F760957095809590959B01B7
:1013A000AC01BD01CF010895052E97FB16F4009402
:1013B0000FD057FD05D0D6DF07FC02D046F408C099
:1013C00050954095309521953F4F4F4F5F4F089571
:1013D00090958095709561957F4F8F4F9F4F0895A1
:1013E000EE0FFF1F0590F491E02D0994A29FB0012C
:1013F000B39FC001A39F700D811D1124911DB29F49
:10140000700D811D1124911D0895F0DFA59F900D91
:10141000B49F900DA49F800D911D11240895F89400
:02142000FFCFFC
:10142200010000000108000B000C000D000400097F
:10143200002C01000000000000D7033E055B03748E
:06144200036603B603007F
:00000001FF
