:10000000C9C400000C945B140C948814EBC4000069
:10001000E9C40000E7C40000E5C400000C94891F97
:10002000E1C40000DFC40000DDC40000DBC4000048
:10003000D9C40000D7C40000D5C40000D3C4000058
:100040000C94C014CFC400000C9467110C94991147
:10005000C9C40000C7C40000C5C40000C3C4000078
:100060000C940E18BFC40000084AD73B3BCE016E6B
:1000700084BCBFFDC12F3D6C74319ABD56833DDAFF
:100080003D00C77F11BED9E4BB4C3E916BAAAABE0E
:10009000000000803F002900444D5020496E6974E3
:1000A00069616C697A6174696F6E206661696C65FB
:1000B000642028636F6465200001B202FFFF019095
:1000C000040923A135016A0206000160080000004E
:1000D0000000000000006004400000000162020017
:1000E0000000600400400000037B034CCD6C03ABB8
:1000F0000336567600680402CB47A20218040005B6
:100100008BC1010C0400000000037F060CC92C9772
:100110009797038903264666006C0220000240047C
:100120000000000002440400000000024804000037
:100130000000024C04000000000250040000000017
:100140000254040000000002580400000000025C99
:10015000040000000002BC040000000001EC0400E8
:10016000004000037F060CC92C9797970402030DEB
:10017000355D040904872D353D00A3010000000012
:1001800001078601FE074105F120283038077E016E
:10019000300746019A074704F1283038076C04F10C
:1001A0002830380216020001FB00003E000B00362A
:1001B000000100020003000000650054FFEF000092
:1001C000FA80000B12820001000200000000000013
:1001D000000000000000000000280000FFFF458133
:1001E000FFFFFA7200000000000003E800000001B9
:1001F00000017FFFFFFE8001001B000000000000E7
:100200000000000000000000003E0330400000003D
:1002100002CAE3093E800000200000000000000048
:10022000400000006000000041FF000000000B2AB9
:100230000000165500002182FD872650FD80000039
:10024000001F000000058000000000000001000009
:100250000002000000030000400000000000046FE6
:100260000002653200005EC0400000000000000097
:100270000000000000000000FB8C6F5DFD5D08D9F0
:10028000007C733B006C12CC3200139D3200D0D640
:1002900032000800400001F4FFE68079020000000F
:1002A0000000D0D600002710FB0000004000000036
:1002B000000000000000000000000001000000003D
:1002C00000000100010000000000FA36FFBC308E83
:1002D0000005FBF0FFD95BC8FFD09ABE000010A953
:1002E000FFF41EB200CEBBF70000000100000004C6
:1002F000000200020200000CFFC28000000180002A
:1003000000CF80004000000000000001000000005D
:1003100000000600000000140000000000000000C3
:1003200000000000000000000000000000000000CD
:1003300000000000000000000000000000000000BD
:10034000000000000000000000000000033F68B64D
:10035000793528BCC67ED16C8000000040000000CA
:100360000000B26A00000000000000000000000071
:1003700000003FF00000003000000000000000001E
:10038000000000000000000000000000000000006D
:1003900000000000000000000000254D002F706DDF
:1003A000000005AE000C02D0000000000065005403
:1003B000FFEF00000000000000000100004400000A
:1003C00000000C00000001000000000000650000BB
:1003D00000540000FFEF00000000000000000000DB
:1003E00000000000000000004000000000000000CD
:1003F00000000000000000004000000000000000BD
:1004000000000000000000000000000100000002E9
:1004100000000000000000000000000000000000DC
:1004200000000000000000000000000000000000CC
:100430000000000000000000001B000000000000A1
:1004400000000000000000000000000000000000AC
:10045000000000000000000000000000000000009C
:100460000000000040000000001B00000000000031
:10047000000000000000000000000000000000007C
:10048000000000000000000000000000000000006C
:10049000000000000000000000000000000000005C
:1004A0000000000000000000D8DCBAA2F1DEB2B803
:1004B000B4A88191F74A907F916AF3F9DBA8F9B06B
:1004C000BAA080F2CE81F3C2F1C1F2C3F3CCA2B2E2
:1004D00080F1C6D880BAA7DFDFDFF2A7C3CBC5B6ED
:1004E000F087A2942448703C95406834589B78A2C9
:1004F000F183922D557DD8B1B4B8A1D09180F2701E
:10050000F370F27C80A8F101B09887D943D886C9EE
:1005100088BAA1F20EB89780F1A9DFDFDFAADFDF8A
:10052000DFF2AAC5CDC7A90CC92C97979797F1A957
:1005300089264666B0B4BA80ACDEF2CAF1B28C024B
:10054000A9B69800890E161EB8A9B4992C547CB08F
:100550008AA896365676F1B9AFB4B083C0B8A897DA
:1005600011B18F98B9AFF0240844106418F1A32991
:10057000557DAF83B593AFF0002850F1A3869F61FE
:10058000A6DADEDFD9FAA38696DB31A6D9F8DFBA80
:10059000A68FC2C5C7B28CC1B8A2DFDFDFA3DFDF81
:1005A000DFD8D8F1B8A8B286B4980D355DB8AA984E
:1005B000B0872D353DB2B6BAAF8C96198F9FA70E76
:1005C000161EB49AB8AA872C547CB9A3DEDFDFA329
:1005D000B180F2C4CDC9F1B8A9B499830D355D8954
:1005E000B9A32D557DB593A30E161EA92C547CB826
:1005F000B4B0F19783A81184A50998A383F0DA24F5
:100600000844106418D8F1A529557DA58595021ACE
:100610002E3A565A4048F9F3A3D9F8F098832408A3
:10062000441064189782A8F111F098A2240844108D
:100630006418DAF3DED883A59401D9A302F1A2C32A
:10064000C5C7D8F18492A24DDA2AD84869D92AD8E8
:100650006855DA32D85071D932D8705DDA3AD85844
:1006600079D93AD87893A34DDA2AD84869D92AD8C3
:100670006855DA32D85071D932D8705DDA3AD85824
:1006800079D93AD878A88A9AF02850789EF38818B1
:10069000F19F1D98A8D908D8C89F129EF315A8DA13
:1006A0001210D8F1AFC8978734B5B994A421F3D903
:1006B00022D8F22DF3D92AD8F235F3D932D881A431
:1006C000606061D961D86C6869D969D8747071D972
:1006D00071D8B1A384193D5DA3831A3E5E93103097
:1006E000811011B8B0AF8F94F2DA3ED8B49AA887CF
:1006F00029DAF8D8879A35DAF8D8879A3DDAF8D81F
:10070000B1B9A49885022E56A581000C14A397B008
:100710008AF12DD928D84DD948D86DD968D8B18457
:100720000DDA0ED8A32983DA2C0ED8A3844983DAF4
:100730002C4C0ED8B8B0A88A9AF520AADADFD8A82F
:1007400040AAD0DADED8A860AADAD0DFD8F197863E
:10075000A8319B069907AB9728889BF00C20144082
:10076000B8B0B4A88C9CF0042851791D301438B26C
:1007700082ABD0982C505078789BF11AB0F08A9CBC
:10078000A82951798B2951798A2470598B20587165
:100790008A4469388B3940688A6448318B304960B3
:1007A000A588200971584468113964493019F1ACA1
:1007B000002C547CF08CA804285078F1889726A847
:1007C0005998AC8C02264666F0899CA82951792458
:1007D0007059446938644831A98809205970AB11AF
:1007E000384069A8193148608CA83C415C207C00E5
:1007F000F187981986A86E767EA999882D557D9ED9
:10080000B9A38A228A6E8A568A5E9FB183062646DB
:10081000660E2E4E6E9DB8AD002C547CF2B18CB499
:1008200099B9A32D557D8191AC38AD3AB58391AC82
:100830002DD928D84DD948D86DD968D88C9DAE29E6
:10084000D904AED851D904AED879D904D881F39D52
:10085000AD008DAE1981ADD901D8F2AEDA26D88EB1
:10086000912983A7D9ADADADADF32AD8D8F1B0ACFD
:1008700089913E5E76F3AC2E2EF1B18C5A9CAC2C55
:100880002828289CAC3018A8988128343C9724A7A5
:1008900028343C9C24F2B089AC912C4C6C8A9B2D62
:1008A000D9D8D851D9D8D879D9D8D8F19E88A331F8
:1008B000DAD8D8912DD928D84DD948D86DD968D84B
:1008C000B18393353D8025DAD8D88569DAD8D8B494
:1008D0009381A328343CF3AB8BF8A391B609B4D928
:1008E000ABDEFAB0879CB9A3DDF1A3A3A3A395F176
:1008F000A3A3A39DF1A3A3A3A3F2A3B49080F2A307
:10090000A3A3A3A3A3A3A3A3A3B2A3A3A3A3A3A3A8
:10091000B087B599F1A3A3A398F1A3A3A3A397A329
:10092000A3A3A3F39BA3A3DCB9A7F1262626D8D8BB
:10093000FF0000000800020100000304070000009F
:1009400000000000000102040810204080010204A1
:100950000810200102040810200404040404040404
:100960000402020202020203030303030300000065
:100970000023002600290000000000250028002B8D
:100980000000000000240027002A0000880DC71185
:100990002F17691A11241FBECFEFD8E0DEBFCDBFDD
:1009A00011E0A0E0B1E0E0EAFEE402C005900D92A3
:1009B000A833B107D9F723E0A8E3B1E001C01D9245
:1009C000AD36B207E1F719E0C4E9D9E004C02297D7
:1009D000FE010E940C22CC38D107C9F70E94B61440
:1009E0000C944E270DCB81E08093380108954F92EF
:1009F0005F926F927F928F929F92AF92BF92CF92AF
:100A0000DF92EF92FF920F931F93CF93DF93CDB7B7
:100A1000DEB768970FB6F894DEBF0FBECDBF8C016E
:100A2000FB018BA59CA5ADA5BEA58D879E87AF8735
:100A3000B88B8FA598A9A9A9BAA9898B9A8BAB8BDA
:100A4000BC8B8BA99CA9ADA9BEA98D8B9E8BAF8BAE
:100A5000B88F8FA898ACA9ACBAACC080D180E28026
:100A6000F38084819581A681B78189839A83AB8342
:100A7000BC8380859185A285B3858D839E83AF835A
:100A8000B88784859585A685B78589879A87AB873A
:100A9000BC872D853E854F855889C701B6010E94C8
:100AA00056242B013C0129893A894B895C8969814B
:100AB0007A818B819C810E9456249B01AC01C301E9
:100AC000B2010E9410222B013C012D893E894F89E1
:100AD000588D6D817E818F8198850E9456249B015F
:100AE000AC01C301B2010E9410222B013C01A501FF
:100AF000940169857A858B859C850E9456249B018B
:100B0000AC01C301B2010E941022D8016D937D9304
:100B10008D939C93139729893A894B895C89C701E6
:100B2000B6010E9456242B013C012D853E854F8540
:100B3000588969817A818B819C810E9456249B010E
:100B4000AC01C301B2010E9411222B013C01A5019D
:100B500094016D817E818F8198850E9456249B012E
:100B6000AC01C301B2010E9411222B013C012D896D
:100B70003E894F89588D69857A858B859C850E9431
:100B800056249B01AC01C301B2010E941022F8015E
:100B900064837583868397832D893E894F89588D19
:100BA000C701B6010E9456242B013C01A501940106
:100BB00069817A818B819C810E9456249B01AC01C2
:100BC000C301B2010E9410222B013C012D853E85FC
:100BD0004F8558896D817E818F8198850E9456242A
:100BE0009B01AC01C301B2010E9411222B013C0107
:100BF00029893A894B895C8969857A858B859C85A9
:100C00000E9456249B01AC01C301B2010E94112233
:100C1000D80118966D937D938D939C931B97A50196
:100C20009401C701B6010E9456246B017C012D89F5
:100C30003E894F89588D69817A818B819C810E9480
:100C400056249B01AC01C701B6010E9411226B0121
:100C50007C0129893A894B895C896D817E818F81EC
:100C600098850E9456249B01AC01C701B6010E94E1
:100C700010226B017C012D853E854F855889698541
:100C80007A858B859C850E9456249B01AC01C70107
:100C9000B6010E941122F8016487758786879787BD
:100CA000C80168960FB6F894DEBF0FBECDBFDF91C6
:100CB000CF911F910F91FF90EF90DF90CF90BF9059
:100CC000AF909F908F907F906F905F904F9008951E
:100CD0004F925F926F927F92AF92BF92CF92DF92CC
:100CE000EF92FF920F931F93CF93DF93CDB7DEB7B1
:100CF000E0970FB6F894DEBF0FBECDBF8C015B014D
:100D0000FC0164817581882777FD8095982F0E946A
:100D100076236B017C01F80162817381882777FD5E
:100D20008095982F0E9476232B013C01F801608169
:100D30007181882777FD8095982F0E947623198AE4
:100D40001A8A1B8A1C8A6D8B7E8B8F8B988F498E9B
:100D50005A8E6B8E7C8ECD8EDE8EEF8EF8A28DB786
:100D60009EB740970FB6F8949EBF0FBE8DBFADB72C
:100D7000BEB7119680E1FE01719601900D928A95A1
:100D8000E1F7B501CE01819632DE80E1FE01B19638
:100D9000DE01519601900D928A95E1F7F501848567
:100DA0009585A685B785B058408551856285738540
:100DB0007058C480D580E680F780F7FAF094F7F891
:100DC000F094408051806280738049825A826B82A5
:100DD0007C82CD82DE82EF82F88649875A876B87D4
:100DE0007C878D879E87AF87B88B8DB79EB74097DE
:100DF0000FB6F8949EBF0FBE8DBFADB7BEB71196AC
:100E000080E1FE01319601900D928A95E1F7BE01D5
:100E10006F5E7F4FCE018196EADD80E1FE01B196E3
:100E2000DE01519601900D928A95E1F76D897E89D8
:100E30008F89988D0E944323F80171836083698DA7
:100E40007A8D8B8D9C8D0E944323F801738362837E
:100E50006D8D7E8D8F8D98A10E944323F80175833F
:100E600064830FB6F894DEBF0FBECDBFE0960FB619
:100E7000F894DEBF0FBECDBFDF91CF911F910F91D0
:100E8000FF90EF90DF90CF90BF90AF907F906F90EA
:100E90005F904F9008958F929F92AF92BF92CF92A2
:100EA000EF920F931F93CF93DF93CDB7DEB7C05967
:100EB000D1090FB6F894DEBF0FBECDBF5C010E9412
:100EC000E01A6EE170E080E090E00E94391560E089
:100ED000C5010E94E61A21E041E060E1C5010E94DF
:100EE000D41B66E0C5010E94DE1BC5010E94E31B06
:100EF00020E040E060E0C5010E94D41BC5010E94D3
:100F00001F1BC5010E943B1B182FC5010E94601BBF
:100F1000882EC5010E94851B982E4FE760E0C50111
:100F20000E94A71A60E0C5010E94CE1A48E660E060
:100F3000C5010E94A71AC5010E94DA1A64E170E097
:100F400080E090E00E943915EE24E39400E020E078
:100F500049E857E068EA71E0C5010E94351D882321
:100F600009F40EC240EC50E068EE70E0C5010E944A
:100F7000FA1D882309F406C263E0C5010E94EC1A39
:100F800062E1C5010E94B21A64E0C5010E94701AB4
:100F900061E0C5010E94751A63E0C5010E947F1AD5
:100FA00063E0C5010E94891A63E0C5010E94FC1D2F
:100FB00060E0C5010E94011E60E0C5010E94351B72
:100FC000612FC5010E94561B682DC5010E947B1B25
:100FD000692DC5010E94A01B812C912CF401E754BE
:100FE000FF4FE491A1E8B0E0AC0FBD1FA80DB11D0B
:100FF000EC9381E0880D9FEF891A990AE3E0E815E8
:1010000068F7CD57DF4F4881C358D04050E09A0170
:101010002E5F3F4F90E02817390704F7C12CEE24CC
:10102000E394CE57DF4F0881C258D040CF57DF4FEF
:101030002881C158D04061E870E06C0F7D1F6D5F62
:101040007F4FC5010E94591C60E0F401E754FF4F37
:10105000E491A1E8B0E0AC0FBD1FA60FB11DEC9369
:101060006F5FFFEF8F1A9F0A643078F3CD57DF4F21
:101070004881C358D04050E09A012E5F3F4F862FE1
:1010800090E0281739070CF7C12CEE24E394CE57D3
:10109000DF4F0881C258D040CF57DF4F2881C15859
:1010A000D04061E870E06C0F7D1F6D5F7F4FC50120
:1010B0000E94591CC5010E94D41AC5010E94F61A4B
:1010C000482FBE016F5F7F4FC5010E94111B62E078
:1010D000C5010E94931A6CE9C5010E949D1A60E542
:1010E000C5010E94981A60E0C5010E94A21AC501BC
:1010F0000E94D41A61E0C5010E94C81A61E0C501CE
:101100000E94C81BC5010E94CE1B60E0F401E75499
:10111000FF4FE491A1E8B0E0AC0FBD1FA60FB11DD9
:10112000EC936F5F8FEF881A980A643078F3CD578D
:10113000DF4F4881C358D04050E09A012E5F3F4FA7
:10114000862F90E0281739070CF7C12CEE24E39482
:10115000CE57DF4F0881C258D040CF57DF4F28818C
:10116000C158D04061E870E06C0F7D1F6D5F7F4F0C
:10117000C5010E94591C60E0F401E754FF4FE4915F
:10118000A1E8B0E0AC0FBD1FA60FB11DEC936F5FDF
:101190009FEF891A990A643078F3CD57DF4F488161
:1011A000C358D04050E09A012E5F3F4F862F90E009
:1011B000281739070CF7C12CEE24E394CE57DF4FE4
:1011C0000881C258D040CF57DF4F2881C158D04046
:1011D00061E870E06C0F7D1F6D5F7F4FC5010E945D
:1011E000591C60E0F401E754FF4FE491A1E8B0E03E
:1011F000AC0FBD1FA60FB11DEC936F5FEFEF8E1A02
:101200009E0A643078F3CD57DF4F4881C358D040F1
:1012100050E09A012E5F3F4F862F90E02817390744
:101220000CF7C12CEE24E394CE57DF4F0881C2584F
:10123000D040CF57DF4F2881C158D04061E870E0DF
:101240006C0F7D1F6D5F7F4FC5010E94591CC5014A
:101250000E94F61A83309105D0F3482FBE016F5FCC
:101260007F4FC5010E94111BC5010E94B71A60E0A3
:10127000F401E754FF4FE491A1E8B0E0AC0FBD1FCB
:10128000A60FB11DEC936F5FFFEF8F1A9F0A6430BA
:1012900078F3CD57DF4F4881C358D04050E09A01D2
:1012A0002E5F3F4F862F90E0281739070CF7CE5757
:1012B000DF4F0881C258D040CF57DF4F2881C15837
:1012C000D04061E870E06C0F7D1F6D5F7F4FC501FE
:1012D0000E94F41BC5010E94F61A83309105D0F3D9
:1012E000482FBE016F5F7F4FC5010E94111BC501D2
:1012F0000E94B71AF401E754FF4F60E08491A1E81F
:10130000B0E0AC0FBD1FA60FB11D8C936F5F6430B2
:1013100010F43196F3CFCD57DF4F4881C358D040FA
:1013200050E09A012E5F3F4F862F90E02817390733
:1013300084F761E870E06C0F7D1F6D5F7F4FC12CFB
:10134000EE24E394CE57DF4F0881C258D040CF57E8
:10135000DF4F2881C158D040C5010E94591C60E070
:10136000C5010E94C81B8AE290E0F5019383828345
:10137000C5010E94D41AC5010E94B71A80E003C0BB
:1013800081E001C082E0C057DF4F0FB6F894DEBFA6
:101390000FBECDBFDF91CF911F910F91EF90CF90F6
:1013A000BF90AF909F908F900895CF93DF93DB0114
:1013B000FA01309719F4EC01E881F981848D90E00D
:1013C000982F8827258D820F911D11969C938E93BF
:1013D00080A190E0982F882721A1820F911D13965C
:1013E0009C938E93129784A190E0982F882725A133
:1013F000820F911D15969C938E93149780E0DF9138
:10140000CF910895CF93DF93DB01FA01309719F460
:10141000EC01E881F981808190E0982F8827218173
:10142000820F911D11969C938E93848190E0982F4A
:1014300088272581820F911D13969C938E93129776
:10144000808590E0982F88272185820F911D159621
:101450009C938E931497848590E0982F88272585F8
:10146000820F911D17969C938E93169780E0DF91C3
:10147000CF910895FF920F931F93CF93DF93CDB732
:10148000DEB728970FB6F894DEBF0FBECDBF8B0135
:10149000BE016F5F7F4FB6DFF82E81114CC06981AE
:1014A0007A81882777FD8095982F0E94762320E007
:1014B00030E040E858E30E945624F80160837183CD
:1014C000828393836B817C81882777FD8095982F19
:1014D0000E94762320E030E040E858E30E94562442
:1014E000F80164837583868397836D817E81882765
:1014F00077FD8095982F0E94762320E030E040E829
:1015000058E30E945624F801608771878287938789
:101510006F817885882777FD8095982F0E947623A4
:1015200020E030E040E858E30E945624F801648748
:101530007587868797878F2D28960FB6F894DEBF1C
:101540000FBECDBFDF91CF911F910F91FF900895F6
:10155000AF92BF92CF92DF92EF92FF920F931F93C1
:10156000CF93DF93EB015A018901FA016081718108
:10157000882777FD8095982F0E9476236B017C0148
:1015800020E030E040E056E4F80160817181828122
:1015900093810E9456249B01AC01C701B6010E94B1
:1015A00010220E94432379836883F501628173814D
:1015B000882777FD8095982F0E9476236B017C0108
:1015C00020E030E040E056E4F801648175818681D6
:1015D00097810E9456249B01AC01C701B6010E946D
:1015E00010220E9443237B836A83F5016481758105
:1015F000882777FD8095982F0E9476236B017C01C8
:1016000020E030E040E056E4F80160857185828595
:1016100093850E9456249B01AC01C701B6010E942C
:1016200010220E9443237D836C8380E0DF91CF9161
:101630001F910F91FF90EF90DF90CF90BF90AF90F0
:101640000895CB0166E0FA01DC0101900D926A95E4
:10165000E1F7B9013DDB80E008954F925F926F9210
:101660007F928F929F92AF92BF92CF92DF92EF9232
:10167000FF920F931F93CF93DF93CDB7DEB72897D9
:101680000FB6F894DEBF0FBECDBF8B01DA01149602
:10169000CD90DD90ED90FC9017971C964D905D904D
:1016A0006D907C901F978D909D90AD90BC901397FE
:1016B00018968D919D910D90BC91A02D89839A8350
:1016C000AB83BC83A3019201C701B6010E945624DB
:1016D0006D837E838F83988729813A814B815C81DA
:1016E000C501B4010E9456249B01AC016D817E812D
:1016F0008F8198850E9410229B01AC010E941122CB
:10170000F8016083718382839383A7019601C501E9
:10171000B4010E9456246D837E838F839887A30132
:10172000920169817A818B819C810E9456249B0160
:10173000AC016D817E818F8198850E9411229B0171
:10174000AC010E941122D80114966D937D938D9364
:101750009C931797A5019401C501B4010E945624DA
:101760004B015C01A7019601C701B6010E945624F6
:101770009B01AC01C501B4010E9410226B017C01E8
:1017800029813A814B815C81CA01B9010E945624AA
:101790009B01AC01C701B6010E9410226B017C01C4
:1017A000A3019201C301B2010E9456249B01AC0126
:1017B000C701B6010E941122F801608771878287F4
:1017C000938780E028960FB6F894DEBF0FBECDBF9A
:1017D000DF91CF911F910F91FF90EF90DF90CF900D
:1017E000BF90AF909F908F907F906F905F904F9041
:1017F00008952F923F924F925F926F927F928F92B5
:101800009F92AF92BF92CF92DF92EF92FF920F938F
:101810001F93CF93DF9300D000D000D0CDB7DEB7B9
:101820001B018A013E832D83FA01C080D180E280B2
:10183000F380A7019601C701B6010E9411226983B6
:101840007A838B839C83F80184809580A680B780FF
:10185000A5019401C501B4010E9411222B013C0194
:10186000A701960169817A818B819C810E9456240F
:101870006B017C01A5019401C301B2010E945624B1
:101880009B01AC01C701B6010E94112220E030E0AB
:1018900040E85FE30E9410226B017C01F801208583
:1018A000318542855385C301B2010E9456242B0124
:1018B0003C01F801248535854685578569817A8103
:1018C0008B819C810E9456249B01AC01C301B20113
:1018D0000E941022A70196010E948422F1016083D8
:1018E000718382839383ED81FE816481758186811A
:1018F0009781C084D184E284F3849B01AC010E946F
:1019000056244B015C01A7019601C701B6010E9454
:1019100056249B01AC01C501B4010E9411220E9412
:10192000BD249B01AC01ED81FE81608171818281CA
:1019300093810E94DB220E94AF22F10164837583B0
:1019400086839783ED81FE8160817181828193819D
:10195000C084D184E284F3849B01AC010E945624AC
:101960004B015C01A7019601C701B6010E945624F4
:101970009B01AC01C501B4010E9411220E94BD244B
:101980009B01AC01ED81FE81648175818681978127
:101990000E94DB220E94AF22F1016087718782875B
:1019A000938780E026960FB6F894DEBF0FBECDBFBA
:1019B000DF91CF911F910F91FF90EF90DF90CF902B
:1019C000BF90AF909F908F907F906F905F904F905F
:1019D0003F902F9008951092380182EC91E00E9480
:1019E000B71A8093C00182EC91E00E94F61A90939E
:1019F000BC018093BB012091C00124FD03C081156F
:101A0000944029F482EC91E00E94D41A68C021FF2E
:101A100066C04091BD015091BE018091BB01909183
:101A2000BC018417950748F482EC91E00E94F61AF5
:101A30009093BC018093BB01ECCF6BE771E082EC2B
:101A400091E00E94111B8091BB019091BC012091FB
:101A5000BD013091BE01821B930B9093BC0180931A
:101A6000BB014BE751E06BE671E082EC91E002DDF7
:101A70004BE651E06DE471E082EC91E0EEDD2DE4A7
:101A800031E04BE651E061E471E082EC91E0B1DEDF
:101A90004BE751E06BE671E082EC91E0EBDC4BE769
:101AA00051E065E671E082EC91E07FDC4BE651E0CD
:101AB0006DE471E082EC91E0D0DD2DE431E045E6AB
:101AC00051E06FE571E082EC91E042DD2BE631E020
:101AD0004FE551E069E571E082EC91E0B2DD8BED1C
:101AE00091E00E942F1E9093DA018093D9018BED33
:101AF00091E00E94511E9093D8018093D7018BED05
:101B000091E00E94731E9093D6018093D5010895B1
:101B100028EC30E046E068E089EE91E00E94951EF6
:101B200042E061E083EE91E00E949F198BED91E02D
:101B30000E94061E82EC91E00E946C1A80E090E008
:101B4000A0E8BFE380936B0190936C01A0936D01BB
:101B5000B0936E0110926F0110927001109271019A
:101B6000109272011092730110927401109275011B
:101B700010927601109277011092780110927901FB
:101B800010927A011092660110926501109268011C
:101B90001092670110926A0110926901109260011F
:101BA00010925F0110926201109261011092640123
:101BB0001092630110925A011092590110925C0127
:101BC00010925B0110925E0110925D0110924D0126
:101BD00010924E0110924F0110925001109251013B
:101BE000109252011092530110925401109255011B
:101BF00010925601109257011092580108950F93B8
:101C00001F93CF93DF938091C101882309F46DC1A5
:101C1000E2DE00D70E94742320913D0130913E0105
:101C200040913F01509140010E9410226093390180
:101C300070933A0180933B0190933C01EBD60E9454
:101C4000742360933D0170933E0180933F01909314
:101C500040018BEF91E0F9D1181619060CF045C13F
:101C60008BEF91E00BD2C82F65E070E080E090E050
:101C700000D7C13609F0B9C020E030E044E353E4B6
:101C80006091490170914A0180914B0190914C0102
:101C90000E9456242BED3FE049E450E40E94DB22F1
:101CA000AB01BC0122E030E08BEF91E0E3D56CE2C8
:101CB0008BEF91E013D420E030E044E353E46091F3
:101CC00045017091460180914701909148010E9421
:101CD00056242BED3FE049E450E40E94DB22AB01A7
:101CE000BC0122E030E08BEF91E0C4D56CE28BEFD9
:101CF00091E0F4D320E030E044E353E4609141010B
:101D00007091420180914301909144010E945624B8
:101D10002BED3FE049E450E40E94DB22AB01BC0123
:101D200022E030E08BEF91E0A5D56CE28BEF91E003
:101D3000D5D36091590170915A014AE050E08BEF80
:101D400091E094D46CE28BEF91E0C8D360915B0199
:101D500070915C014AE050E08BEF91E087D46CE237
:101D60008BEF91E0BBD360915D0170915E014AE021
:101D700050E08BEF91E07AD46CE28BEF91E0AED340
:101D80006091D9017091DA014AE050E08BEF91E067
:101D90006DD46CE28BEF91E0A1D36091D70170918B
:101DA000D8014AE050E08BEF91E060D46CE28BEF19
:101DB00091E094D36091D5017091D6014AE050E052
:101DC0008BEF91E053D46CE28BEF91E087D340919D
:101DD000390150913A0160913B0170913C0122E040
:101DE00030E08BEF91E046D552C0C23609F47DC099
:101DF000C33691F48BEF91E041D18C01EC01DD27EA
:101E000021978BEF91E03AD1CB51DE4F888301309F
:101E100009F06BC061E013C0C436F1F48BEF91E0C0
:101E20002DD18C01EC01DD2721978BEF91E026D19C
:101E3000CB51DE4F8883013009F057C062E083EE5A
:101E400091E00E94F319688183EE91E0DF91CF91D8
:101E50001F910F910C94521AC53669F48BEF91E0E3
:101E60000DD1813009F041C063E083EE91E00E9422
:101E7000F31960E0E9CFC63691F48BEF91E0FED024
:101E8000FAD64AE050E0BC018BEF91E0EFD36AE074
:101E90008BEF91E0DF91CF911F910F911FC3C73658
:101EA000C9F48BEF91E0EAD0C82F61E270E080E0E6
:101EB00090E0DFD5C13059F789EE91E00E945B1FB9
:101EC00069E370E00E94D4214AE050E08BEF91E09A
:101ED000E6D3DDCFCA3749F464E083EE91E0DF91C9
:101EE000CF911F910F910C94F319DF91CF911F9116
:101EF0000F9108958BEF91E0A8D0181619065CF0A9
:101F000068E071E08BEF91E0E8D26CE271E080E094
:101F100090E0AFD5EFCF8BEF91E0F2D06AE070E0C8
:101F200080E090E0A6C5CF9385EA92E062D788E191
:101F30008093B80026E040E056E960E070E08BEF67
:101F400091E063D160E083E028D6C8E168E670E004
:101F500085EA92E06FD761E085EA92E06CD788234A
:101F600031F085EA92E045D7C093B800EFCF82EC1C
:101F700091E00E944B078093BF0165EE7AEE82EC00
:101F800091E00E94AA1B69E670E082EC91E00E9459
:101F9000AF1B6DE874E082EC91E00E94B41B6AE331
:101FA00070E082EC91E00E94B91B69EB7FEF82EC5C
:101FB00091E00E94BE1B6CE170E082EC91E00E9417
:101FC000C31B8091BF0181111DC061E082EC91E0D3
:101FD0000E94C81B43E050E063EF74E080E04BD404
:101FE00082EC91E00E94B71A8093C00181E0809357
:101FF000C1018091C4019091C5019093BE0180936D
:10200000BD0111C068E970E08BEF91E041D24AE078
:1020100050E06091BF018BEF91E03BD366E970E047
:102020008BEF91E074D28BED91E00E94201E62DF75
:10203000F1D40E94742360933D0170933E0180931C
:102040003F0190934001CF910895FC01818D228D35
:1020500090E0805C9F4F821B91098F7399270895B0
:10206000FC01918D828D981731F0828DE80FF11D62
:10207000858D90E008958FEF9FEF0895FC01918D7D
:10208000828D981761F0828DDF01A80FB11D5D96DA
:102090008C91928D9F5F9F73928F90E008958FEF48
:1020A0009FEF08958EEB91E1892B41F080E090E065
:1020B000892B21F063D181110C9400000895FC015B
:1020C000848DDF01A80FB11DA35ABF4F2C91848DC1
:1020D00090E001968F739927848FA689B7892C93F6
:1020E000A089B1898C9180648C93938D848D981391
:1020F00006C00288F389E02D80818F7D808308955A
:10210000CF93DF93EC01888D8823C1F0EA89FB89A6
:10211000808185FD05C0A889B9898C9186FD0EC096
:102120000FB607FCF5CF808185FFF2CFA889B9896A
:102130008C9185FFEDCFCE01C2DFE8CFDF91CF914B
:102140000895CF92DF92FF920F931F93CF93DF9367
:102150001F92CDB7DEB76C01DC015B969C915B975B
:102160005C968C915C97981307C05096ED91FC910A
:102170005197808185FD31C0F601038D10E00F5F1E
:102180001F4F0F731127F02EF601848DF81210C027
:102190000FB607FCF9CFD6015096ED91FC915197FF
:1021A000808185FFF1CFC601698389DF6981ECCF2A
:1021B000838DE80FF11DE35AFF4F6083D6015B96D4
:1021C0000C935B975296ED91FC91539780818062BE
:1021D000808381E058968C930DC0D6015696ED9180
:1021E000FC91579760835096ED91FC9151978081B7
:1021F0008064808381E090E00F90DF91CF911F9108
:102200000F91FF90DF90CF900895BF92CF92DF9211
:10221000EF92FF92CF93DF93EC016A017B01B22E24
:10222000E889F98982E08083411581EE58076105CC
:102230007105A1F060E079E08DE390E0A7019601DF
:102240000E94E821215031094109510956954795CD
:1022500037952795211580E1380798F0E889F989A5
:10226000108260E874E88EE190E0A70196010E9478
:10227000E821215031094109510956954795379573
:102280002795EC85FD853083EE85FF852083188EAC
:10229000EC89FD89B082EA89FB8980818061808335
:1022A000EA89FB89808188608083EA89FB89808153
:1022B00080688083EA89FB8980818F7D8083DF91BC
:1022C000CF91FF90EF90DF90CF90BF9008951F9235
:1022D0000F920FB60F9211242F938F939F93EF932A
:1022E000FF93E0910B02F0910C028081E0911102CA
:1022F000F091120282FD12C09081809114028F5FD2
:102300008F7320911502821751F0E0911402F0E0D2
:10231000E550FE4F958F8093140201C08081FF919C
:10232000EF919F918F912F910F900FBE0F901F9063
:1023300018951F920F920FB60F9211242F933F936F
:102340004F935F936F937F938F939F93AF93BF93BD
:10235000EF93FF938BEF91E0B2DEFF91EF91BF918E
:10236000AF919F918F917F916F915F914F913F912D
:102370002F910F900FBE0F901F9018958BEF91E04B
:1023800064DE21E0892B09F420E0822F0895109269
:10239000FE011092FD0188EE93E0A0E0B0E0809392
:1023A000FF0190930002A0930102B09302028EE01D
:1023B00091E09093FC018093FB0185EC90E0909379
:1023C00008028093070284EC90E090930A028093C5
:1023D000090280EC90E090930C0280930B0281EC58
:1023E00090E090930E0280930D0282EC90E0909327
:1023F000100280930F0286EC90E09093120280937B
:1024000011021092140210921502109216021092EC
:1024100017020895CF92DF92EF92FF920F931F93CE
:10242000CF93DF936C017A01EB01E60EF71E00E01B
:1024300010E0CE15DF0561F06991D601ED91FC91B8
:102440000190F081E02DC6010995080F191FF1CF09
:10245000C801DF91CF911F910F91FF90EF90DF9016
:10246000CF9008956115710581F0DB010D9000207A
:10247000E9F7AD0141505109461B570BDC01ED91C5
:10248000FC910280F381E02D099480E090E00895B2
:10249000EF92FF920F931F93CF93DF938C01FB0179
:1024A000C0E0D0E064917F018FEFE81AF80A66235C
:1024B00061F0D801ED91FC910190F081E02DC8010F
:1024C0000995C80FD91FF701EDCFCE01DF91CF914C
:1024D0001F910F91FF90EF900895C4CFDC01ED9113
:1024E000FC910190F081E02D09940F931F93CF93FD
:1024F000DF93EC016DE0F2DF8C016AE0CE01EEDFEC
:10250000800F911FDF91CF911F910F9108950F932D
:102510001F93CF93DF93EC01BBDF8C01CE01E5DF8E
:10252000800F911FDF91CF911F910F9108958F928E
:102530009F92AF92BF92CF92DF92EF92FF920F9352
:102540001F93CF93DF93CDB7DEB7A1970FB6F89463
:10255000DEBF0FBECDBF7C01C42EE52FCB01D22E36
:1025600019A221E02D1510F02AE0D22E8E010F5D68
:102570001F4F8D2C912CA12CB12C6C2D7E2FA501E1
:1025800094010E94E8218C2DD29E801911240150C3
:1025900011098A3014F4805D01C0895CF8018083E0
:1025A000211531054105510521F0C22EE32FCA0145
:1025B000E4CFB801C70156DFA1960FB6F894DEBF8D
:1025C0000FBECDBFDF91CF911F910F91FF90EF9084
:1025D000DF90CF90BF90AF909F908F900895CF9253
:1025E000DF92EF92FF920F931F93CF93DF93EC0153
:1025F0006A017B012115310579F4E881F9810190A7
:10260000F081E02D642FDF91CF911F910F91FF900A
:10261000EF90DF90CF9009942A303105D9F477FFFD
:1026200018C06DE25BDF8C0144275527BA014C19B5
:102630005D096E097F092AE0CE0179DF800F911FC5
:10264000DF91CF911F910F91FF90EF90DF90CF908E
:1026500008952AE0B701A601CE01DF91CF911F9125
:102660000F91FF90EF90DF90CF9061CF9A01AB0177
:10267000662757FD6095762FB2CF2115310541F4BD
:10268000DC01ED91FC910190F081E02D642F099423
:102690004ECF9A01462F50E060E070E0EECF9A01F5
:1026A000AB0160E070E0E9CF4F925F926F927F9252
:1026B0008F929F92AF92BF92CF92DF92EF92FF9252
:1026C0000F931F93CF93DF93EC016A017B01B22E2E
:1026D0009A01AB01C701B6010E94FE24882319F0BC
:1026E0006AE171E027C026013701E89477F82FEFFF
:1026F0003FEF4FE75FE7C301B2010E94FE24811163
:102700000DC02FEF3FEF4FE75FE7C301B2010E941B
:10271000D72218161CF46EE171E00CC02FEF3FEFCA
:102720004FE75FE4C701B6010E944B241816A4F4DA
:1027300062E271E0CE01DF91CF911F910F91FF9086
:10274000EF90DF90CF90BF90AF909F908F907F9051
:102750006F905F904F9086CE2FEF3FEF4FE75FEC8B
:10276000C701B6010E94D72287FDE2CF20E030E00A
:10277000A901C701B6010E94D72287FF09C06DE2F7
:10278000CE01ACDE8C01F7FAF094F7F8F09402C0B9
:1027900000E010E0A12C60E070E080E09FE3AB146B
:1027A00041F020E030E040E251E40E94DB22A394BB
:1027B000F6CF9B01AC01C701B6010E9411226B014B
:1027C0007C010E9448232B013C010E9474239B0141
:1027D000AC01C701B6010E9410226B017C012AE006
:1027E000B301A201CE01A3DE080F191FBB2031F0F7
:1027F00066E271E0CE0136DE080F191F7B2C7720D0
:1028000039F120E030E040E251E4C701B6010E9416
:1028100056246B017C010E9443234B01AA2497FCA0
:10282000A094BA2C2AE030E0B501A401CE01D7DE95
:10283000080F191FC501B4010E9476239B01AC014A
:10284000C701B6010E9410226B017C017A94D7CF98
:10285000C801DF91CF911F910F91FF90EF90DF9012
:10286000CF90BF90AF909F908F907F906F905F9030
:102870004F90089519CF8230E8F4E82FF0E0EE0F82
:10288000FF1FE856FD4F71836083813041F08091D6
:1028900069008C7F842B80936900E89A0895809169
:1028A0006900440F551F440F551F837F842B80936D
:1028B0006900E99A08951F920F920FB60F921124A2
:1028C0002F933F934F935F936F937F938F939F9338
:1028D000AF93BF93EF93FF938091980290919902E9
:1028E000892B29F0E0919802F09199020995FF91C6
:1028F000EF91BF91AF919F918F917F916F915F9178
:102900004F913F912F910F900FBE0F901F901895F0
:102910001F920F920FB60F9211242F933F934F9354
:102920005F936F937F938F939F93AF93BF93EF9337
:10293000FF9380919A0290919B02892B29F0E0915C
:102940009A02F0919B020995FF91EF91BF91AF918F
:102950009F918F917F916F915F914F913F912F91B7
:102960000F900FBE0F901F9018950895B2D0FDDF05
:10297000DADAC2E5D0E143D92097E9F393DBFBCF64
:102980001F920F920FB60F9211242F933F938F93A4
:102990009F93AF93BF9380919D0290919E02A091CF
:1029A0009F02B091A00230919C0223E0230F2D37AB
:1029B00020F40196A11DB11D05C026E8230F029643
:1029C000A11DB11D20939C0280939D0290939E02B5
:1029D000A0939F02B093A0028091A1029091A202C5
:1029E000A091A302B091A4020196A11DB11D8093F4
:1029F000A1029093A202A093A302B093A402BF915C
:102A0000AF919F918F913F912F910F900FBE0F909B
:102A10001F9018952FB7F89460919D0270919E02B7
:102A200080919F029091A0022FBF08953FB7F89424
:102A30008091A1029091A202A091A302B091A40260
:102A400026B5A89B05C02F3F19F00196A11DB11D09
:102A50003FBF6627782F892F9A2F620F711D811D26
:102A6000911D42E0660F771F881F991F4A95D1F785
:102A70000895CF92DF92EF92FF92CF93DF936B0195
:102A80007C01D4DFEB01C114D104E104F10479F03D
:102A90001AD1CCDF6C1B7D0B683E7340A0F381E044
:102AA000C81AD108E108F108C851DC4FECCFDF911A
:102AB000CF91FF90EF90DF90CF900895019700970E
:102AC00039F0880F991F880F991F02970197F1F726
:102AD0000895789484B5826084BD84B5816084BD96
:102AE00085B5826085BD85B5816085BDEEE6F0E087
:102AF000808181608083E1E8F0E0108280818260E3
:102B00008083808181608083E0E8F0E08081816063
:102B10008083E1EBF0E0808184608083E0EBF0E093
:102B2000808181608083EAE7F0E080818460808337
:102B300080818260808380818160808380818068E1
:102B400080831092C1000895833081F028F4813091
:102B500099F08230A1F008958730A9F08830B9F05B
:102B60008430D1F4809180008F7D03C080918000FB
:102B70008F7780938000089584B58F7702C084B5E5
:102B80008F7D84BD08958091B0008F7703C08091C0
:102B9000B0008F7D8093B0000895CF93DF9390E0D5
:102BA000FC01EB5BF64F2491FC01E75AF64F849150
:102BB000882349F190E0880F991FFC01EF57F64FE9
:102BC000A591B4918958964FFC01C591D4919FB7B6
:102BD000611108C0F8948C91209582238C93888190
:102BE00082230AC0623051F4F8948C91322F3095D0
:102BF00083238C938881822B888304C0F8948C91E2
:102C0000822B8C939FBFDF91CF9108950F931F93D9
:102C1000CF93DF931F92CDB7DEB7282F30E0F901B5
:102C2000EF5CF64F8491F901EB5BF64F1491F901DB
:102C3000E75AF64F04910023C1F0882319F0698305
:102C400083DF6981E02FF0E0EE0FFF1FE958F64FB8
:102C5000A591B4919FB7F8948C91611103C0109520
:102C6000812301C0812B8C939FBF0F90DF91CF9167
:102C70001F910F910895CF93DF93282F30E0F90132
:102C8000EF5CF64F8491F901EB5BF64FD491F901BB
:102C9000E75AF64FC491CC2389F0811155DFEC2F10
:102CA000F0E0EE0FFF1FE359F64FA591B4912C9180
:102CB0002D2381E090E021F480E002C080E090E0EC
:102CC000DF91CF91089508958091D50290E02091F1
:102CD000D602821B910908952091D6028091D502D7
:102CE000281750F4E22FF0E0E952FD4F808190E088
:102CF0002F5F2093D60208958FEF9FEF0895E09104
:102D0000D6028091D502E81730F4F0E0E952FD4F89
:102D1000808190E008958FEF9FEF08950895CF92FE
:102D2000DF92EF92FF920F931F93CF93DF937C017B
:102D3000CB018A012091B102222389F0EB016B01C2
:102D4000C40ED51ECC15DD0561F06991D701ED915A
:102D5000FC910190F081E02DC7010995F3CF642F1C
:102D600034D1C801DF91CF911F910F91FF90EF9067
:102D7000DF90CF900895CF93DF931F92CDB7DEB74A
:102D800069832091B1022223D1F02091B202203236
:102D900040F021E030E0FC013383228380E090E0CA
:102DA00014C08091B302E82FF0E0EC54FD4F9981FC
:102DB00090838F5F8093B3028093B20204C061E07E
:102DC000CE01019602D181E090E00F90DF91CF918A
:102DD0000895FC011382128248EE53E060E070E037
:102DE00044835583668377838CE291E0918380836B
:102DF00008951092D6021092D5021092B30210924A
:102E0000B20230C0862F413208F040E267ED72E036
:102E100045D01092D6028093D502089521E0F2CFDA
:102E200081E08093B1026093D4021092B3021092B9
:102E3000B2020895F5CF0F93062F21E04091B20220
:102E400064EB72E08091D4026DD01092B3021092C4
:102E5000B2021092B1020F91089561E0ECCF85EAC1
:102E600092E0B7CF1092640381E0809362031092E6
:102E7000610361E082E1CADE61E083E1C7DEE9EB84
:102E8000F0E080818E7F808380818D7F808388E4E5
:102E90008093B80085E48093BC000895413208F027
:102EA0003FC0909164039111FCCF91E09093640333
:102EB000209362032FEF2093F70210923C03240F1C
:102EC00020933B039093630390916303880F892BB6
:102ED0008093630380916103813041F41092610318
:102EE000809163038093BB0085EC01C085EE8093E5
:102EF000BC00809164038130E1F380913C0384172E
:102F000010F440913C032DE333E0FB01D9018A2FFB
:102F1000821B841718F48D918193F9CF842F089523
:102F200080E008950F93413208F046C09091640309
:102F30009111FCCF92E090936403009362039FEFA2
:102F40009093F70210923C0340933B03FB016DE327
:102F500073E0DB019A2F961B941718F491919D93BF
:102F6000F9CF1092630390916303880F892B8093AC
:102F7000630380916103813041F410926103809179
:102F800063038093BB0085EC01C085EE8093BC0099
:102F9000222321F0809164038230E1F38091F702D3
:102FA0008F3F61F08091F702803251F08091F702FB
:102FB000803341F483E007C081E005C080E003C0B6
:102FC00082E001C084E00F910895613298F420916D
:102FD0006403243089F460931903FC018BE193E0CE
:102FE000DC012A2F281B261718F421912D93F9CFE5
:102FF00080E0089581E0089582E0089585ED809352
:10300000BC008091BC0084FDFCCF10926403089545
:1030100085EC8093BC001092640308951F920F9278
:103020000FB60F9211242F933F934F935F936F939B
:103030007F938F939F93AF93BF93EF93FF93809171
:10304000B900887F803609F49CC068F5883209F49D
:103050005BC090F4803109F454C038F4882309F43B
:10306000F3C0883009F44DC0F2C0883109F44CC077
:10307000803209F45DC0EBC0803409F468C048F4C4
:10308000803309F455C0883309F0E1C08093F7021A
:10309000A7C0803509F44FC0883509F45DC0883475
:1030A00009F0D5C0D3C0883909F4C4C0A8F4883762
:1030B00009F467C038F4883609F463C0803709F42E
:1030C00060C0C5C0883809F4B5C0803909F45FC054
:1030D000803809F0BCC05BC0803B09F483C038F481
:1030E000803A09F466C0883A09F47CC0B0C0803CDC
:1030F00009F4A4C0883C09F4A1C0883B09F487C046
:10310000A6C08091630310C090913C0380913B0363
:10311000981770F5E0913C0381E08E0F80933C039B
:10312000F0E0E35CFC4F80818093BB0085EC83C0C2
:103130008093F7028BC0E0913C0381E08E0F809377
:103140003C038091BB00F0E0E35CFC4F80839091F6
:103150003C0380913B036BC0E0913C0381E08E0F08
:1031600080933C038091BB00F0E0E35CFC4F8083E4
:103170008091620381116AC081E08093610384EAD7
:103180005EC083E0809364031092F802CFCF8091F9
:10319000F802803208F04EC0E091F80281E08E0F14
:1031A0008093F8028091BB00F0E0E750FD4F8083F0
:1031B000BDCF8091F802803230F4E091F802F0E067
:1031C000E750FD4F10821ADF6091F80270E0E09145
:1031D0005D03F0915E0389EF92E009951092F80289
:1031E00017DF35C084E08093640310921A031092B5
:1031F0001903E0915F03F091600309958091190331
:10320000811105C081E08093190310921B03E091A6
:103210001A0381E08E0F80931A03F0E0E55EFC4F05
:1032200080818093BB0090911A03809119039817B5
:1032300008F47CCF85E88093BC0009C085EC8093BE
:10324000BC001092640303C01092F702D7DEFF9116
:10325000EF91BF91AF919F918F917F916F915F910E
:103260004F913F912F910F900FBE0F901F90189587
:1032700084B5836884BD17BC61E086E08ECC84B5DC
:10328000836284BD18BC61E085E087CCCF93DF9377
:1032900060E08CE0BBDC60E088E0B8DCC7E0D0E058
:1032A00060E084E0B3DC8091660390E00C2E02C005
:1032B000959587950A94E2F780FF02C061E001C00E
:1032C00060E088E0A3DC61E084E0A0DC219740F7C7
:1032D00061E08CE0DF91CF9199CCCF93DF93EC014B
:1032E00061E08CE05ADC61E087E057DC61E088E077
:1032F00054DC61E084E051DC10926603CE01C6DF4D
:1033000060E087E0DF91CF9181CCE0EBF0E090814D
:103310009368908387708093B1001092B30061E04E
:103320008BE03BCCE0EBF0E0908193629083877080
:103330008093B1001092B40061E083E02ECC1F9323
:10334000CF93DF931F92CDB7DEB7FC01142F6083BC
:10335000418385E693E06983C0DF6981623019F1BA
:1033600088F4613009F03AC080916603837F8093CE
:10337000660385E693E08ADF812F0F90DF91CF917E
:103380001F91C3CF6330E9F0643041F5809166034B
:103390008E7B8093660385E693E078DF0F90DF9164
:1033A000CF911F916CCF809166038D7E80936603D1
:1033B00085E693E06BDF812F0F90DF91CF911F9116
:1033C000B1CF809166038F758093660385E693E0A5
:1033D0005DDF0F90DF91CF911F914ACF0F90DF916A
:1033E000CF911F910895FC018081823091F018F4F3
:1033F000813031F00895833031F0843039F0089510
:1034000073E0E2E008C077E0E5E005C076E0E0E0E8
:1034100002C074E0E1E06230D1F0643069F1613003
:1034200009F03FC041E050E09A01072E01C0220F91
:103430000A94EAF720950E2E01C0440F0A94EAF789
:1034400080916603842B28232093660327C021E004
:1034500030E0A9010E2E01C0440F0A94EAF740950E
:10346000809166034823072E01C0220F0A94EAF7D1
:10347000422B4093660312C081E090E0AC0101C092
:10348000440FEA95EAF701C0880F7A95EAF7842B92
:1034900080959091660398239093660385E693E068
:1034A000F5CE0895FC018081823061F018F48130FE
:1034B00031F00895833049F0843049F008956093E5
:1034C000B30008956093B400089567BD089568BD82
:1034D000089510926503089528E6FC01208308955D
:1034E000462F69E1FC01808176C50F93062F23E00A
:1034F00045E06AE1FC01808113D70F9108950F9395
:10350000062F23E042E06AE1FC01808109D70F9198
:1035100008950F93062F22E044E06BE1FC018081C7
:10352000FFD60F910895462F6FE1FC01808153C5AE
:10353000462F60E2FC0180814EC5462F61E2FC010E
:10354000808149C5462F62E2FC01808144C5643018
:1035500040F4262F220F260F2B5D622FFC01808165
:103560003AC50895462F68E3FC01808134C5CF93A6
:10357000DF93EC012091060130910701AC014F5F10
:103580005F4F6AE3888132D68981DF91CF910895B8
:10359000262F46E06AE6FC01808191C6262F45E091
:1035A0006AE6FC0180818BC621E042E06AE6FC010C
:1035B000808185C621E041E06AE6FC0180817FC60A
:1035C00021E047E06BE6FC01808179C6262F46E0CA
:1035D0006BE6FC01808173C60F93062F23E042E067
:1035E0006BE6FC0180819CD60F9108950F931F9389
:1035F000CF93DF93EC0100910601109107019C012C
:103600002F5F3F4F42E062E7888143D5898190E098
:10361000982F88272A81822BDF91CF911F910F91BC
:1036200008950F931F939B010091060110910701CC
:1036300064E7FC0180812DD51F910F9108950F93B0
:103640001F93CF93DF93EC010091060110910701C6
:103650009C012F5F3F4F40E060E08881D0D5898199
:10366000DF91CF911F910F910895262F40E060E0E8
:10367000FC01808124C6EF92FF920F931F93CF939A
:10368000DF93EC01E0900601F09007018C010F5FE1
:103690001F4F26E046E060E08881D5D58981DF9123
:1036A000CF911F910F91FF90EF9008950F93062FE8
:1036B00026E046E060E0FC01808132D60F9108955B
:1036C000EF92FF920F931F93CF93DF93EC01E09063
:1036D0000601F09007018C010F5F1F4F26E046E0C6
:1036E00061E08881B0D58981DF91CF911F910F91E1
:1036F000FF90EF9008950F93062F26E046E061E0DB
:10370000FC0180810DD60F910895EF92FF920F93E7
:103710001F93CF93DF93EC01E0900601F090070137
:103720008C010F5F1F4F26E046E062E088818BD559
:103730008981DF91CF911F910F91FF90EF900895B4
:103740000F93062F26E046E062E0FC018081E8D579
:103750000F910895AB0166E0FC01808189C4AB0143
:1037600068E0FC01808184C4AB016AE0FC018081D7
:103770007FC4AB0163E1FC0180817AC4AB0165E1E8
:10378000FC01808175C4AB0167E1FC01808170C4DC
:10379000262F47E06AE6FC01808191C521E043E0E5
:1037A0006AE6FC0180818BC56F7121116062411155
:1037B0006064462F6DE6FC0180810DC4462F6EE6E5
:1037C000FC01808108C4CF93DF93EC0120910601B6
:1037D00030910701AC014F5F5F4F6FE6888106D5DE
:1037E0008981DF91CF9108955F926F927F928F923E
:1037F0009F92AF92BF92CF92DF92EF92FF920F9380
:103800001F93CF93DF937C015B016A01622E702EC0
:1038100020E040E0662DC8DF602FC701CFDFC0E0A9
:10382000D0E0812C99249394CC15DD0590F5CE0140
:103830004096C816D90618F45C2C5C1A02C0A0E1A8
:103840005A2E252D30E0C40187199109821793075C
:1038500014F4572C51940091060110910701950121
:103860002C0F3D1F452D6FE6F701808112D4C50D49
:10387000D11D750CCC15DD05B8F6711001C063942F
:1038800020E040E0662DC7018FDF672DC70196DF7E
:10389000CBCFDF91CF911F910F91FF90EF90DF90F1
:1038A000CF90BF90AF909F908F907F906F905F90E0
:1038B00008952F923F924F925F926F927F928F92D4
:1038C0009F92AF92BF92CF92DF92EF92FF920F93AF
:1038D0001F93CF93DF9300D000D01F92CDB7DEB7F8
:1038E0009D838C837B836A834A01322ED02EE982AA
:1038F00020E040E0632D58DF602F8C819D815EDFEA
:10390000E980EE2029F080E190E00E9417255C011B
:10391000CC2039F080E190E00E941725582E292E06
:1039200002C0512C212CE12CF12CE814F90408F0F0
:1039300074C0C70140968816990618F4482C4E1892
:1039400002C010E1412E242D30E080E091E08D197D
:1039500091098217930714F44D2C4194EA81FB815D
:10396000EE0DFF1DCC2059F0852DA52DB22D9A2FDF
:10397000981B941530F494919D933196F8CF5E2E58
:103980002F2E252D322D442D6FE6AC81BD818C91DB
:10399000E9D2642C712CB981BB2351F1A114B1047B
:1039A00039F120E040E0632D8C819D81FDDE6D2D9D
:1039B0008C819D8103DF0091060110910701950123
:1039C000442D6FE6EC81FD81808163D3A301B501B5
:1039D000852D922D0E940127892B51F0C5010E944F
:1039E000AF25CC2039F1852D922D0E94AF2522C024
:1039F000E60CF71CD40CE814F90408F096CFD110AB
:103A000001C0339420E040E0632D8C819D81CCDEA9
:103A10006D2D8C819D81D2DE88CFF981FF2319F035
:103A2000C5010E94AF25CC2039F0852D922D0E9432
:103A3000AF2502C080E001C081E00F900F900F9091
:103A40000F900F90DF91CF911F910F91FF90EF900A
:103A5000DF90CF90BF90AF909F908F907F906F90AE
:103A60005F904F903F902F900895CF92EF920F93D9
:103A7000CC24C3941EDF0F91EF90CF9008952F9226
:103A80003F924F925F926F927F928F929F92AF92EE
:103A9000BF92CF92DF92EF92FF920F931F93CF933B
:103AA000DF9300D01F92CDB7DEB74C017B836A83D2
:103AB0003A01D22E222331F088E090E0B8D7182FB7
:103AC000F92E02C010E0F12C212C312C26143704E1
:103AD00008F04EC0EA81FB81E20DF31DC10103969F
:103AE0005C01DD20C1F04491F10131968A819B8116
:103AF000E80FF91F0491F1013296E80FF91F549075
:103B0000511040C0F4E02F0E311CEA81FB81EA0D18
:103B1000FB1D84910DC0408101815280EA81FB81AF
:103B2000E80FF91F51100CC084E0280E311C808171
:103B30008130C1F442E368E3F40180814CD2C6CF06
:103B40001E2FFF2E452C512CC12CEE24E394242F44
:103B5000A201612F7F2DC401ACDE12012A0C3B1C97
:103B60008111B4CFDD2051F0812F9F2DF8D706C0F1
:103B7000DD2031F0812F9F2DF2D702C080E024C0DC
:103B800081E022C0252C312CF2E0F51548F4B1017A
:103B9000812F9F2D49830E943E26182FF92E49819F
:103BA000812F9F2DA0E0B0E02A813B812A0D3B1D93
:103BB000A215B30538F6F901EA0FFB1F5491FC0179
:103BC0005193CF011196F4CF0F900F900F90DF918A
:103BD000CF911F910F91FF90EF90DF90CF90BF900A
:103BE000AF909F908F907F906F905F904F903F909D
:103BF0002F90089521E043CF462F60E7FC0180819C
:103C0000EAC1462F61E7FC018081E5C12EE1FC019C
:103C100020830895462F4295440F407E61E0FC01C9
:103C20008081D9C11F93CF93DF93EC01162F462FCC
:103C300062E08881D0D11F83DF91CF911F910895D9
:103C4000CF93DF93EC0140E760E08881C4D161E06D
:103C5000CE01E0DF61E0CE01DF91CF91E3CF0F93A2
:103C60001F93CF93DF93EC010091060110910701A0
:103C70009C012F5F3F4F46E063E088810AD28F812D
:103C8000813021F441E062E08881A5D1898190E012
:103C9000982F88272A81822BDF91CF911F910F9136
:103CA00008950F931F93CF93DF93EC0100910601CA
:103CB000109107019C012F5F3F4F46E063E0888130
:103CC000E8D18F81813021F441E062E0888183D1A5
:103CD0008D8190E0982F88272E81822BDF91CF91C4
:103CE0001F910F9108950F931F93CF93DF93EC01D2
:103CF00000910601109107019C012F5F3F4F46E0A4
:103D000063E08881C6D18F81813021F441E062E097
:103D1000888161D18B8190E0982F88272C81822B1C
:103D2000DF91CF911F910F910895CF93DF93DC0125
:103D300070E0FB01EB5BF64FE4911496EC93149763
:103D4000842F90E0FC01EB5BF64FE4911596EC9329
:103D50001597675A764FFB01C491D0E0CC0FDD1F59
:103D6000C958D64FFE014591549117965C934E93D6
:103D70001697FC01E75AF64F849190E0880F991F3F
:103D80008359964FFC01459154911B965C934E9339
:103D90001A97FB016491E62FF0E0EE0FFF1FEF573B
:103DA000F64F8591949119969C938E931897C9011B
:103DB000253FF1E03F0714F084EF91E049E3489F8D
:103DC0009001499F300D1124245E3F4F1D963C9376
:103DD0002E931C97DF91CF9108950F931F93CF934C
:103DE000DF93EC01E885F98580819C81892B8083B4
:103DF000EE81FF8190818C8180958923808384E08E
:103E000090E00E945E15EE81FF8180819C81892B6C
:103E100080838AE090E00E945E15EE81FF819081B0
:103E20008C81809589238083E885F98590818C81B8
:103E30008095892380830E941615605B794B8F4F94
:103E40009F4F6E877F87888B998BEA85FB85808162
:103E50009D81892359F00E9416150E851F8528899A
:103E60003989061717072807390778F7EA85FB8588
:103E700080819D81892369F40E9416150E851F8516
:103E800028893989061717072807390778F780E046
:103E90000DC00E9416152C853D85620F731F811D74
:103EA000911D6E877F87888B998B81E0DF91CF9101
:103EB0001F910F9108950F931F93CF93DF93EC0100
:103EC0008CDF882389F0EA85FB8580819D818923A9
:103ED00071F00E9416150E851F85288939890617ED
:103EE00017072807390778F720E030E00CC00E9458
:103EF00016152C853D85255031094E855F85241B7F
:103F0000350B260F371FC901DF91CF911F910F91FC
:103F100008951F920F920FB60F9211242F933F9383
:103F20004F935F936F937F938F939F93AF93BF93C1
:103F3000EF93FF93E0916703F0916803309709F0E6
:103F40000995FF91EF91BF91AF919F918F917F91D3
:103F50006F915F914F913F912F910F900FBE0F90F6
:103F60001F901895EF92FF920F931F93CF93DF93BB
:103F700000D0CDB7DEB7062F142F682F85EA92E068
:103F800029833A830E941017602F85EA92E00E94ED
:103F9000BB162981022FE22E3A81F32E8E2D801B33
:103FA000811740F4F70161917F0185EA92E00E9458
:103FB000BB16F4CF85EA92E00E942D1791E08111A3
:103FC00090E0892F0F900F90DF91CF911F910F916B
:103FD000FF90EF900895CF93DF931F92CDB7DEB798
:103FE00049839E012F5F3F4F41E0BCDF0F90DF917F
:103FF000CF910895DF92EF92FF920F931F93CF938B
:10400000DF93C62F042F7901682F85EA92E00E9482
:1040100010176C2F85EA92E00E94BB1610E0000F8B
:10402000111FD12CCD2DD0E0C017D1078CF4CC0FAF
:10403000DD1FCE0DDF1D698185EA92E00E94BB166F
:10404000688185EA92E00E94BB16D394D394EACFAC
:1040500085EA92E00E942D1791E0811190E0892F6E
:10406000DF91CF911F910F91FF90EF90DF90089516
:10407000CF93DF9300D0CDB7DEB75A8349839E013B
:104080002F5F3F4F41E0B6DF0F900F90DF91CF9150
:1040900008953F924F925F926F927F928F929F927C
:1040A000AF92BF92CF92DF92EF92FF920F931F9346
:1040B000CF93DF9300D000D000D0CDB7DEB7682E0D
:1040C000562E742E3A8329830E940A156B017C01B7
:1040D000312C412C872D90E09C838B834801A12CAF
:1040E000B12C3714B0F5662D85EA92E00E941017C6
:1040F000652D85EA92E00E94BB1685EA92E00E9457
:104100002D17662D85EA92E00E9410174B815C8185
:10411000431951094132510514F040E250E0662D37
:1041200085EA92E00E940E1785EA92E00E946416EA
:10413000892B59F10115110579F10E940A156C19A5
:104140007D098E099F09681579058A059B0520F16F
:104150001CC00115110589F10E940A156C197D0911
:104160008E099F0920E030E06017710782079307EE
:1041700020F1872D90E0242D332727FD3095281737
:104180003907DCF444244A9418C0872D90E297152F
:1041900008F480E2380EA5CFE981FA81E40DF11D23
:1041A00047FCFA95FE83ED8385EA92E00E946C1647
:1041B000ED81FE8180834394B7CF842D26960FB680
:1041C000F894DEBF0FBECDBFDF91CF911F910F914D
:1041D000FF90EF90DF90CF90BF90AF909F908F9027
:1041E0007F906F905F904F903F9008950F931F9333
:1041F00089019A0141E04DDF1F910F910895DF92EF
:10420000EF92FF920F931F93CF93DF931F92CDB73F
:10421000DEB7D42E79019801AE014F5F5F4FE6DF24
:1042200061E070E001C0660FDA94EAF799819623A5
:10423000F70190830F90DF91CF911F910F91FF9025
:10424000EF90DF900895CF92DF92EF92FF920F935D
:104250001F93CF93DF931F92CDB7DEB7C42ED22E1C
:104260009701AE014F5F5F4FC1DF8823F1F04C2D06
:1042700050E04D1951094F5F5F4F61E070E002C09F
:10428000660F771FDA94E2F761507109042E01C0BE
:10429000660F0A94EAF72981262330E002C035959B
:1042A00027954A95E2F7F80120830F90DF91CF918F
:1042B0001F910F91FF90EF90DF90CF900895EF92B4
:1042C000FF920F931F93CF93DF931F92CDB7DEB76B
:1042D000182F062FF42EE22E2091060130910701AF
:1042E000AE014F5F5F4F82DF898121E030E00F2C0C
:1042F00001C0220F0A94EAF7EE2019F0482F422B52
:1043000003C0422F409548234983602F812F63DEED
:104310000F90DF91CF911F910F91FF90EF90089533
:10432000DF92EF92FF920F931F93CF93DF931F9231
:10433000CDB7DEB7F82EE62ED42E122F209106012F
:1043400030910701AE014F5F5F4F50DF882311F1BD
:104350004D2D50E0411B51094F5F5F4FE1E0F0E010
:1043600002C0EE0FFF1F1A95E2F73197042E01C02D
:10437000EE0F0A94EAF701C0000F4A95EAF74E2FB4
:10438000409589814823E0234E2B49836E2D8F2D44
:1043900022DE01C080E00F90DF91CF911F910F913D
:1043A000FF90EF90DF900895AA1BBB1B51E107C05F
:1043B000AA1FBB1FA617B70710F0A61BB70B881FB5
:1043C000991F5A95A9F780959095BC01CD01089544
:1043D000A1E21A2EAA1BBB1BFD010DC0AA1FBB1F09
:1043E000EE1FFF1FA217B307E407F50720F0A21B7B
:1043F000B30BE40BF50B661F771F881F991F1A94E8
:1044000069F760957095809590959B01AC01BD0111
:10441000CF010895EE0FFF1F0590F491E02D099450
:104420005058BB27AA270ED0FCC1EDD130F0F2D1F5
:1044300020F031F49F3F11F41EF4BDC10EF4E0955D
:10444000E7FBB3C1E92FFED180F3BA176207730708
:104450008407950718F071F49EF516C20EF4E095E6
:104460000B2EBA2FA02D0B01B90190010C01CA012E
:10447000A0011124FF27591B99F0593F50F4503ED9
:1044800068F11A16F040A22F232F342F4427585FCB
:10449000F3CF469537952795A795F0405395C9F7E3
:1044A0007EF41F16BA0B620B730B840BBAF091509B
:1044B000A1F0FF0FBB1F661F771F881FC2F70EC03A
:1044C000BA0F621F731F841F48F48795779567950D
:1044D000B795F7959E3F08F0B3CF9395880F08F0F6
:1044E0009927EE0F9795879508958DD158F080E81C
:1044F00091E009F49EEF8ED128F040E851E059F4A4
:104500005EEF09C058C1C0C1E92FE0789BD168F3C4
:10451000092E052AC1F3261737074807590738F02F
:104520000E2E07F8E02569F0E025E0640AC0EF638D
:1045300007F8009407FADB01B9019D01DC01CA010B
:10454000AD01EF9347D06DD10AD05F91552331F083
:104550002BED3FE049E450FD49EC63CF0895DF9334
:10456000DD27B92FBF7740E85FE316161706480727
:104570005B0710F4D92F93D19F938F937F936F9301
:104580003AD2E8E6F0E01AD14CD12F913F914F9109
:104590005F9198D1DD2349F09058A2EA2AED3FE0DF
:1045A00049EC5FE3D0785D274DDFDF913AC1D9D088
:1045B00008F481E008950CD034C12CD140F023D10F
:1045C00030F021F45F3F19F0F0C051115EC1F3C02B
:1045D00039D198F39923C9F35523B1F3951B550BA2
:1045E000BB27AA2762177307840738F09F5F5F4FC6
:1045F000220F331F441FAA1FA9F333D00E2E3AF007
:10460000E0E830D091505040E695001CCAF729D020
:10461000FE2F27D0660F771F881FBB1F261737076F
:104620004807AB07B0E809F0BB0B802DBF01FF279F
:1046300093585F4F2AF09E3F510568F0B6C025C1E0
:104640005F3FECF3983EDCF3869577956795B795D9
:10465000F7959F5FC9F7880F911D9695879597F9F4
:104660000895E1E0660F771F881FBB1F621773076D
:104670008407BA0720F0621B730B840BBA0BEE1F82
:1046800088F7E095089504D06894B111FEC00895AC
:10469000E1D088F09F5790F0B92F9927B751A0F03B
:1046A000D1F0660F771F881F991F1AF0BA95C9F7C6
:1046B00012C0B13081F0E8D0B1E00895E5C0672FB5
:1046C000782F8827B85F39F0B93FCCF38695779576
:1046D0006795B395D9F73EF490958095709561955F
:1046E0007F4F8F4F9F4F0895E89409C097FB3EF48A
:1046F00090958095709561957F4F8F4F9F4F99232F
:10470000A9F0F92F96E9BB279395F69587957795AC
:104710006795B795F111F8CFFAF4BB0F11F460FF6C
:104720001BC06F5F7F4F8F4F9F4F16C0882311F0C4
:1047300096E911C0772321F09EE8872F762F05C0D8
:10474000662371F096E8862F70E060E02AF09A9573
:10475000660F771F881FDAF7880F9695879597F968
:104760000895990F0008550FAA0BE0E8FEEF161602
:104770001706E807F907C0F012161306E407F50755
:1047800098F0621B730B840B950B39F40A2661F0C9
:10479000232B242B252B21F408950A2609F4A1406C
:1047A000A6958FEF811D811D089597F99F6780E879
:1047B00070E060E008959FEF80EC0895DF93CF9361
:1047C0001F930F93FF92EF92DF927B018C0168940D
:1047D00005C0DA2EEF0176D0FE01E894A59125916F
:1047E000359145915591AEF3EF012CDEFE01970115
:1047F000A801DA9479F7DF90EF90FF900F911F9165
:10480000CF91DF91089500240A9416161706180612
:104810000906089500240A941216130614060506C4
:104820000895092E0394000C11F4882352F0BB0F55
:1048300040F4BF2B11F460FF04C06F5F7F4F8F4FB8
:104840009F4F089557FD9058440F551F59F05F3FF3
:1048500071F04795880F97FB991F61F09F3F79F0A2
:1048600087950895121613061406551FF2CF469524
:10487000F1DF08C0161617061806991FF1CF8695A6
:104880007105610508940895E894BB27662777278A
:10489000CB0197F9089565DF08F48FEF08959B0128
:1048A000AC0160E070E080E89FE385CE0BD0B9CF2B
:1048B000AADF28F0AFDF18F0952309F076CF7BCF81
:1048C0001124E3CFBFDFA0F3959FD1F3950F50E004
:1048D000551F629FF001729FBB27F00DB11D639FB2
:1048E000AA27F00DB11DAA1F649F6627B00DA11D58
:1048F000661F829F2227B00DA11D621F739FB00DFE
:10490000A11D621F839FA00D611D221F749F33276D
:10491000A00D611D231F849F600D211D822F762F06
:104920006A2F11249F5750408AF0E1F088234AF003
:10493000EE0FFF1FBB1F661F771F881F915050404F
:10494000A9F79E3F510570F030CF9FCF5F3FECF34A
:10495000983EDCF3869577956795B795F795E7953B
:104960009F5FC1F7FE2B880F911D9695879597F94C
:10497000089511F40EF41FCF45C06CDFD0F39923D6
:10498000D9F3CEF39F57550B87FF4AD00024A0E6FA
:1049900040EA900180585695979528F4805C660F00
:1049A000771F881F20F026173707480730F4621B4F
:1049B000730B840B202931294A2BA6951794079451
:1049C000202531254A2758F7660F771F881F20F0CA
:1049D00026173707480730F4620B730B840B200D42
:1049E000311D411DA09581F7B901842F9158880F81
:1049F0009695879508959B01AC0158CFB2DE880B40
:104A0000990B08959F3F31F0915020F48795779549
:104A10006795B795880F911D9695879597F9089595
:104A200091505040660F771F881FD2F70895CF939B
:104A3000DF938230910510F482E090E0E0916B0307
:104A4000F0916C0320E030E0A0E0B0E0309739F165
:104A50004081518148175907B8F04817590771F438
:104A600082819381109729F013969C938E931297CD
:104A70002CC090936C0380936B0327C021153105E4
:104A800031F04217530718F0A901DB0101C0EF0113
:104A90009A01BD01DF010280F381E02DD7CF2115FE
:104AA0003105F9F0281B390B2430310580F48A8157
:104AB0009B816115710521F0FB019383828304C002
:104AC00090936C0380936B03FE01329644C0FE0109
:104AD000E20FF31F81939193225031093983288388
:104AE0003AC02091690330916A03232B41F420914D
:104AF00002013091030130936A03209369032091EE
:104B00000001309101012115310541F42DB73EB767
:104B10004091040150910501241B350BE09169037C
:104B2000F0916A03E217F307A0F42E1B3F0B28173E
:104B3000390778F0AC014E5F5F4F2417350748F016
:104B40004E0F5F1F50936A034093690381939193C3
:104B500002C0E0E0F0E0CF01DF91CF910895CF9364
:104B6000DF93009709F487C0FC0132971382128209
:104B7000C0916B03D0916C03209781F42081318127
:104B8000280F391F8091690390916A038217930758
:104B900079F5F0936A03E09369036DC0DE0120E0CC
:104BA00030E0AE17BF0750F412964D915C91139709
:104BB0009D014115510509F1DA01F3CFB383A283B9
:104BC00040815181840F951F8A179B0771F48D9145
:104BD0009C911197840F951F029691838083129662
:104BE0008D919C911397938382832115310529F42C
:104BF000F0936C03E0936B033EC0D9011396FC93D2
:104C0000EE9312974D915D91A40FB51FEA17FB0724
:104C100079F480819181840F951F0296D9011196B4
:104C20009C938E938281938113969C938E9312977B
:104C3000E0E0F0E08A819B81009719F0FE01EC0131
:104C4000F9CFCE01029628813981820F931F2091DE
:104C5000690330916A032817390769F4309729F4FA
:104C600010926C0310926B0302C013821282D093D5
:104C70006A03C0936903DF91CF910895A0E0B0E08B
:104C8000E3E4F6E2D8C0EC01CB01209711F4CFDECB
:104C9000B4C0FE01E60FF71F9E0122503109E21752
:104CA000F30708F4A8C0D9010D911C9111970617BC
:104CB0001707B0F00530110508F49BC0A801445057
:104CC00051094617570708F494C002501109061BF2
:104CD000170B019311936D937C93CF0140DF89C033
:104CE0005B01A01AB10A4E01800E911EA0916B03C8
:104CF000B0916C03612C712C60E070E0109709F4A6
:104D000049C0A815B905C9F5ED90FC901197670148
:104D100042E0C40ED11CCA14DB0478F147018A18A2
:104D20009B08640142E0C40ED11C1296BC901297FD
:104D30001396AC91B5E0CB16D10440F0B282A383B8
:104D400091828082D9018D939C9309C00E5F1F4F81
:104D50000E0D1F1DF90111830083EB2DFA2F611534
:104D6000710531F0DB011396FC93EE93129741C06D
:104D7000F0936C03E0936B033CC06D917C911197B1
:104D80006616770608F43B01BD0112960D90BC91A2
:104D9000A02DB4CF6091690370916A0368157905FD
:104DA000E9F468167906D0F44091000150910101B0
:104DB0004115510541F44DB75EB760910401709102
:104DC0000501461B570BE417F507A8F4F0936A0397
:104DD000E0936903F901918380830BC028DE7C0195
:104DE000009749F0A801BE0119D0CE01B8DEC70175
:104DF00004C0CE0102C080E090E0CDB7DEB7EEE0A7
:104E000036C0FB01DC0104C08D910190801921F4B2
:104E100041505040C8F7881B990B0895FB01DC01F5
:104E200002C001900D9241505040D8F708952F9242
:104E30003F924F925F926F927F928F929F92AF922A
:104E4000BF92CF92DF92EF92FF920F931F93CF9377
:104E5000DF93CDB7DEB7CA1BDB0B0FB6F894DEBF0E
:104E60000FBECDBF09942A88398848885F846E8434
:104E70007D848C849B84AA84B984C884DF80EE807E
:104E8000FD800C811B81AA81B981CE0FD11D0FB687
:104E9000F894DEBF0FBECDBFED010895F894FFCFAB
:104EA00000006D032000E803520000000000A11084
:104EB0000A1225103E10301080106E616E00696E6F
:104EC00066006F7666002E0000000000BB168F168D
:084ED00064166C167F168E16A5
:00000001FF
